:020000040800F2
:100000001807002005010008490400084104000801
:1000100045040008250300081B0900080000000033
:10002000000000000000000000000000B50500080E
:100030002903000800000000BD040008A106000814
:100040001F0100081F0100081F0100081F01000810
:100050001F0100081F0100081F0100081F01000800
:100060001F0100081F0100081F0100081F010008F0
:100070001F0100081F0100081F0100081F010008E0
:100080001F0100081F0100081F0100081F010008D0
:100090001F0100081F0100081F0100081F010008C0
:1000A0001F0100081F0100081F0100081F010008B0
:1000B0001F0100081F0100081F0100081F010008A0
:1000C0001F0100081F0100081F0100081F01000890
:1000D0001F010008050700081F0100081F01000894
:1000E0001F0100081F0100081F010008DFF810D0E1
:1000F00000F006F900480047B5090008AFF300809A
:10010000180700200648804706480047FEE7FEE73C
:10011000FEE7FEE7FEE7FEE7FEE7FEE7FEE7FEE7B7
:10012000A5060008ED000008D2B201E000F8012B9E
:10013000491EFBD270470022F6E710B513460A4667
:1001400004461946FFF7F0FF204610BD421C10F888
:10015000011B0029FBD1801A704710B5002200E076
:10016000521C835C8C5CA34201D1002BF8D1D8B225
:10017000E1B2401A10BD30B505460020034600E04C
:100180005B1C934205D2EC5CC85C201A01D1002CA8
:10019000F6D130BD80EA010210B502F00043400004
:1001A00022D04A001FD0010E01EB1261C0F35600AD
:1001B000C2F3560240F4000042F40002A0FB022009
:1001C00000047F39140400D0401C50EA124001D4CE
:1001D0004000491EC2B20C0604EBD010401C40087F
:1001E000802A02D003E0002010BD20F00100002989
:1001F00000DA0020184310BD30B480EA010202F09A
:10020000004530F0004221F0004013D090B1C30D02
:10021000D40DC2F31601C0F31600E41A41F4000134
:1002200040F400027D34914201D3641C00E0490097
:10023000002C02DA30BC002070474FF4000000238D
:10024000914201D3891A034340084FEA4101F7D193
:1002500051B1914202D14FF0004105E002D24FF07E
:10026000010101E06FF0010103EBC450284430BCF0
:1002700000F00EB8C10F80EAE0700844CA07962368
:10028000002100F00EB896230022114600F009B8B4
:100290000029A8BF7047401C490008BF20F001009A
:1002A000704710B4B0FA80FC00FA0CF050EA010478
:1002B00004BF10BC704749B1CCF1200421FA04F40A
:1002C00011FA0CF118BF012121430843A3EB0C01E3
:1002D000CB1D4FEA00614FEA102042BF002010BC46
:1002E000704700EBC35010440029A4BF10BC7047F6
:1002F000401C490008BF20F0010010BC70470000FE
:10030000064C074D06E0E06840F0010394E8070062
:1003100098471034AC42F6D3FFF7ECFED028000823
:10032000F028000800BFFEE770472DE9F0410246C3
:1003300000250026002000230024002791F803C098
:100340000CF00F0591F803C00CF0100CBCF1000F7D
:1003500003D091F802C04CEA050591F800C0BCF149
:10036000000F31D0146800202BE04FF0010C0CFA84
:1003700000F3B1F800C00CEA03069E4220D18300CE
:100380004FF00F0C0CFA03F7BC4305FA03FC4CEAE0
:10039000040491F803C0BCF1280F06D14FF0010C02
:1003A0000CFA00FCC2F814C00AE091F803C0BCF1DA
:1003B000480F05D14FF0010C0CFA00FCC2F810C038
:1003C000401C0828D1D31460B1F800C0BCF1FF0F65
:1003D00034DD546800202EE000F1080C4FF00108D5
:1003E00008FA0CF3B1F800C00CEA03069E4221D1D2
:1003F00083004FF00F0C0CFA03F7BC4305FA03FC23
:100400004CEA040491F803C0BCF1280F05D100F1B7
:10041000080C08FA0CF8C2F8148091F803C0BCF17B
:10042000480F07D100F1080C4FF0010808FA0CF84A
:10043000C2F81080401C0828CED35460BDE8F0817B
:1004400000BFFEE700BFFEE77047000070B5002167
:1004500000230F22C47804B3154C246804F4E0642C
:10046000C4F5E064210AC1F10403CA40447804FAE7
:1004700003F184781440214309010E4C0678A155FC
:10048000047804F01F050124AC4005786D11AD001F
:1004900005F1E025C5F8004109E0047804F01F05E6
:1004A0000124AC40044D0678761145F8264070BD15
:1004B0000CED00E000E400E080E100E070470000A7
:1004C00029B1064A92690243044B9A6104E0034A47
:1004D00092698243014B9A6170470000001002400C
:1004E00030B500210022002400232D4D6D6805F059
:1004F0000C0121B1042905D0082923D105E0294D9B
:10050000056022E0274D05601FE0254D6D6805F46C
:100510007012234D6D6805F48034022505EB92427C
:100520001CB9214D554305600BE01D4D6D6805F468
:1005300000351DB11C4D5543056002E0194D554372
:10054000056002E0174D056000BF00BF144D6D68E7
:1005500005F0F0010909154D6B5C0568DD4045604B
:100560000F4D6D6805F4E061090A104D6B5C45683C
:10057000DD4085600A4D6D6805F46051C90A0B4D78
:100580006B5C4568DD40C560054D6D6805F4404114
:10059000890B074D6B5CC568B5FBF3F5056130BD94
:1005A0000010024000127A0000093D0008000020FF
:1005B00018000020704710B500F002F810BD0000D0
:1005C0000CB50020019000903348006840F4803062
:1005D0003149086000BF3048006800F400300090E6
:1005E0000198401C0190009818B90198B0F5A06FCF
:1005F000F1D12948006800F4003010B101200090CA
:1006000001E0002000900098012843D123480068B1
:1006100040F01000214908600846006820F00700FB
:1006200008600846006840F0020008601A48406808
:10063000194948600846406848600846406840F4E8
:10064000806048600846406820F47C104860084696
:10065000406840F4E81048600846006840F0807048
:10066000086000BF0C48006800F000700028F9D056
:100670000948406820F00300074948600846406880
:1006800040F00200486000BF0348406800F00C00E2
:100690000828F9D10CBD00000010024000200240E3
:1006A0007047000010B51348006840F00100114980
:1006B000086008464068104908400E4948600846EE
:1006C00000680E4908400B4908600846006820F49D
:1006D000802008600846406820F4FE0048604FF41F
:1006E0001F008860FFF767FF4FF000600449086053
:1006F00010BD0000001002400000FFF8FFFFF6FEF2
:1007000008ED00E010B540F225510B4800F040F82C
:1007100080B1094800F0F8F8C4B20848006818B180
:10072000204606490968884740F22551024800F0F2
:1007300007F800BF10BD0000003801400400002091
:1007400010B50022002340F66A14A14200D100BF78
:100750000A1201249440A3B2DC43048010BD21B1ED
:10076000828942F40052828104E082894DF6FF734F
:100770001A408281704702460020B1F5007F00D107
:1007800000BF13880B400BB1012000E00020704730
:1007900070B50246002400230025002040F66A16AA
:1007A000B14200D100BFC1F3421501F01F03012681
:1007B00006FA03F3012D02D19689334006E0022D9B
:1007C00002D1168A334001E0968A33400C1201268A
:1007D00006FA04F41688344013B10CB1012000E08D
:1007E000002070BDF0B5034600240026002500203F
:1007F00040F66A17B94200D100BF1846C1F342144F
:1008000001F01F06012707FA06F5012C01D10C3073
:1008100004E0022C01D1103000E014301AB1076856
:100820002F43076002E00768AF430760F0BD000098
:100830002DE9F04786B005460E460024A24600BFCB
:10084000A1460027B08900B100BF2F462C8A4CF684
:10085000FF700440F08804432C82AC894EF6F310FC
:100860000440B08831890843718908430443AC814E
:10087000AC8A4FF6FF400440B0890443AC8201A823
:10088000FFF72EFE1F48874202D1DDF810A001E0DD
:10089000DDF80CA0A88900F4004040B10AEBCA00C2
:1008A00000EB0A1031684900B0FBF1F807E00AEBF1
:1008B000CA0000EB0A1031688900B0FBF1F864202F
:1008C000B8FBF0F004012009642101FB1089A8891C
:1008D00000F4004040B1322000EBC900B0FBF1F061
:1008E00000F00700044308E0322000EB0910642107
:1008F000B0FBF1F000F00F0004432C8106B0BDE81E
:10090000F08700000038014001468888C0F30800E5
:100910007047C1F308028280704700BFFEE702E023
:1009200008C8121F08C1002AFAD17047704700207A
:1009300001E001C1121F002AFBD1704770B50646C5
:100940000C46002504E0705D01F036FD681C85B2A0
:10095000A542F8DB20B270BD2DE9F05F0446894660
:1009600092469B460AADE0CD00F0E4FC804621466D
:1009700001F0D6F8BDE8F09F10B54FF4407101F0DA
:1009800007020A4B18684FF6FF031840084B034351
:1009900043EA0220054B186000BF01210420FFF745
:1009A0008FFD01218803FFF78BFD10BD0CED00E0EA
:1009B0000000FA05FFF7E0FF01F08CFC0C4801F0A5
:1009C000EFFC0C480C49C1F888004FF400720B4949
:1009D000094800F01FFE0AE00948007838B10848CD
:1009E0000178054800F0EAFC002005490870F3E7AB
:1009F000AD2300083D09000870000020FC00002025
:100A0000000000200146002009E0074A52F820209B
:100A10001AB9054A42F820107047421C10B2032848
:100A2000F3DB00BFF8E70000FC02002010B504462D
:100A30000121204600F073F810BD000010B50446F7
:100A4000226891682069FFF788FB60B994F88000FC
:100A500020F00100401C84F880000848016820460E
:100A600001F01EFC04E00548416B204601F018FC33
:100A70000020A0810021E18110BD00001C000020A9
:100A80000246087848B1487800F00F00082804D0E2
:100A9000087813681B78184050B192F8800000F075
:100AA000010018B94878C0F3001008B10020704761
:100AB0004FF0FF30FBE7000010B500F03BFC0446B0
:100AC00024B10348816B204601F0EAFB10BD000011
:100AD0001C00002070B50446A189E089081A05B2FF
:100AE00005E02021204601F0F1FA681E05B2002D34
:100AF000F7DC217B204600F07FF870BD10B500F0D8
:100B000019FC044614B1204600F05AFE10BD10B581
:100B100004464FF0FF31204600F001F810BD2DE9EA
:100B2000F04104460D46681C08B9012000E0002091
:100B30000746E08908B9012D05D0E089A1898842DE
:100B400003D1681C08B9BDE8F081E089A189884219
:100B500010D1012D0ED1E089401EE081A089401EF8
:100B6000A0810021A289206981540121204600F042
:100B700043F83FE038460AE0E18901442269525CCB
:100B8000E1890144491E23695A54411C08B2A289D3
:100B9000E189511A8142EFDCA089401EA08137B95A
:100BA000E089401EE0810821204601F08FFA0021F3
:100BB000A28920698154E08906B206E02069815D3E
:100BC000204601F083FA701C06B2A089B042F5DC21
:100BD0002021204601F07AFAA189E089081A401CF8
:100BE00006B205E00821204601F070FA701E06B238
:100BF000002EF7DC00BFA6E770B505460C4603E003
:100C000004A1284601F04CFB201EA4F10101CCB246
:100C1000F6D170BD0820080010B504464FF0FF3132
:100C2000204600F059FC10BD10B50446204600F0E7
:100C300005F80121204601F0B9FA10BD70B504464F
:100C4000A08900B970BD0021A2892069815494F85F
:100C5000800000F0010018B3204600F09EFC204602
:100C600000F0CEFE0021E181A181B4F8560000B968
:100C7000E8E70EA1204601F013FB00232046A26FF7
:100C8000616900F0D4FF054625B12946204600F0F1
:100C900075FF04E006488169204601F001FB02E08F
:100CA0002046FFF7CBFE00BFCCE700000D0A000096
:100CB0001C00002010B50246114600200B78302B96
:100CC00007D14B78782B02D04B78582B01D10320D9
:100CD0000EE00B78302B07D14B78622B02D04B788B
:100CE000422B01D1012003E00B78302B00D10220F0
:100CF00006E00B782E2B03D14B780BB1042003E0D8
:100D000011F8014B002CF4D100BF10BD0246511C5C
:100D100000200B785C2B1AD14B786E2B0ED004DCA4
:100D2000302B0FD0622B0FD104E0722B04D0742B28
:100D30000AD105E0082009E00D2007E00A2005E0BF
:100D4000092003E0002001E0487800BF00E00878B7
:100D500070472DE9F04F85B005464FF000094FF080
:100D60000A0A2C46CB460126002700200490804624
:100D700028782D2800D1B61E711C09B9012100E088
:100D800000214819FFF796FF8146B9F1010F0FD0F6
:100D9000B9F1020F07D0B9F1030F0DD14FF0100ACE
:100DA0004FF0020B09E04FF0080A4FF0010B04E08E
:100DB0004FF0020AD34600E000BF00BF05EB0B0175
:100DC000701C08B9012000E000200C1811E0207808
:100DD0002E2803D14FF00108641C0AE0207800F0AF
:100DE0004DFA07FB0A0708EB88004FEA4008641C2D
:100DF00000BF20780028EAD1B9F1040F1AD1B8F168
:100E0000000F17D03046FFF735FA03904046FFF742
:100E10003AFA01903846FFF736FA00900199FFF749
:100E2000EBF902900399FFF7B5F90490049805B027
:100E3000BDE8F08F07FB06F0F9E770B505460C46F4
:100E40002078272805D1607818B12046FFF75EFF8B
:100E500070BD20782D2805D02078302806DB20783A
:100E6000392803DC2046FFF774FFF1E720782428B7
:100E700006D1607820B12146284600F02EF8E7E739
:100E8000207818B1204600F003F8E1E70020DFE702
:100E900070B50446254600262078222802D1601C21
:100EA0000446054613E028785C2805D1681EFFF744
:100EB0002DFFA0556D1C07E02878222802D10020C4
:100EC000A05501E02878A0556D1C701C86B22878CA
:100ED0000028E8D1A055204670BD70B504460D46E7
:100EE0000023691C2046A26F00F0A1FE064626B131
:100EF0003146204600F038FA70BD0020FCE71FB5EF
:100F0000A2B0402112A8FFF716F92398807800F0CC
:100F10000F012498401E814204DD2398807800F060
:100F20000F0001E02498401E11900020109010E066
:100F30001098401C259951F8200001460F902298E6
:100F4000FFF77BFF12AA109942F821001098401C6D
:100F500010902498401E10998842E9DC11981028BE
:100F60007DD2DFE800F0080E17233243566B849DD4
:100F7000B8D5F8F6F5F4239880681090804726B02D
:100F800010BD12981090239880680F90DDE90F1023
:100F90008847F4E71398109012980F902398806870
:100FA0000E90DDE90E2010999047E8E71498109014
:100FB00013980F9012980E90239880680D90DDE999
:100FC0000D30DDE90F129847D9E715981090149865
:100FD0000F9013980E9012980D90239880680C90A3
:100FE000DDE90C400EA90EC9A047C8E7169800908D
:100FF0001598109014980F9013980E9012980D90C9
:10100000239880680C90DDE90C400EA90EC9A0471A
:10101000B5E7DDE91601CDE90001159810901498A7
:101020000F9013980E9012980D90239880680C9052
:10103000DDE90C400EA90EC9A047A0E7DDE91612B4
:101040001898CDE9001202901598109014980F90FE
:1010500013980E9012980D902398806800E00AE192
:101060000C90DDE90C400EA90EC9A04787E7DDE929
:101070001623DDE91810CDE90023CDE902101598FB
:10108000109014980F9013980E9012980D9023982A
:1010900080680C90DDE90C400EA90EC9A0476EE7F0
:1010A000DDE91723DDE91901CDE90123CDE90301CC
:1010B000169800901598109014980F9013980E9011
:1010C00012980D90239880680C90DDE90C400EA9D1
:1010D0000EC9A04753E7DDE91823DDE91A10CDE971
:1010E0000223CDE90410DDE91601CDE900011598D0
:1010F000109014980F9013980E9012980D902398BA
:1011000080680C90DDE90C400EA90EC9A04736E7B7
:10111000DDE91A311C9A1998CDE904310692039041
:10112000DDE916121898CDE900120290159810907A
:1011300014980F9013980E9012980D902398806831
:101140000C90DDE90C400EA90EC9A04717E76BE033
:1011500045E021E0FFE7DDE91A23DDE91C10CDE9D8
:101160000423CDE90610DDE91623DDE91810CDE9E9
:101170000023CDE902101598109014980F90139841
:101180000E9012980D90239880680C90DDE90C4029
:101190000EA90EC9A047F2E6DDE91C321E991B9884
:1011A000CDE9063208910590DDE91723DDE9191034
:1011B000CDE90123CDE90310169800901598109001
:1011C00014980F9013980E9012980D9023988068A1
:1011D0000C90DDE90C400EA90EC9A047CFE6DDE971
:1011E0001C23DDE91E10CDE90623CDE90810DDE959
:1011F0001823DDE91A10CDE90223CDE90410DDE959
:101200001601CDE900011598109014980F901398CD
:101210000E9012980D90239880680C90DDE90C4098
:101220000EA90EC9A047AAE6DDE91D23DDE91F10BE
:10123000CDE90723CDE90910DDE91923DDE91B100C
:10124000CDE90323CDE90510DDE916121898CDE9A3
:10125000001202901598109014980F9013980E9009
:1012600012980D90239880680C90DDE90C400EA92F
:101270000EC9A04783E64FF0FF3080E601463029D3
:1012800005DB392903DCA1F13000C0B270476129C8
:1012900005DB662903DCA1F15700C0B2F6E741295E
:1012A00005DB462903DCA1F13700C0B2EEE70020E0
:1012B000ECE70146487800F00F00012801DCC8681F
:1012C0007047487800F00F00072801DCC868F7E78E
:1012D000487800F00F00082801DCC868F0E7C8680B
:1012E000EEE7000010B50446002004E03021104A6B
:1012F0001154411CC8B20928F8DB607800F00F00D7
:10130000012801DC606810BD607800F00F0007283C
:1013100001DC6068F7E7607800F00F00082801DC66
:101320006068F0E70249606800F09BFE0048EAE769
:1013300008030020002111E00A4850F8210058B1AC
:10134000084850F8210090F88000C0F3400018B120
:10135000044850F821007047481C01B20329EBDB18
:101360000020F8E7FC02002070B506460C46002578
:10137000607800F00F00801E06281BD2DFE800F026
:1013800003060A0D0E10A068056814E0A068B0F905
:10139000005010E0A06805780DE000BFA5680AE0E5
:1013A000A068406818B1A26803CA884700E000201E
:1013B000054600E000BF00BF284670BD2DE9F0479C
:1013C00004468846B8F1000F01D1BDE8F087182720
:1013D0004FF00009B4F8580000F47F4018B100271E
:1013E0006FF0FF090EE0A06D00F47F0018B1082730
:1013F000DFF8B49006E0A06D00F07F4010B1102738
:101400004FF07F49A66F00253EE006EB05104078BF
:1014100000F00F00092835D106EB05112046FFF733
:101420002FFB70BB06EB0510406800EA0900A16DB8
:10143000884227D106EB05104068FF21B9400840DB
:1014400008FA07F188421DD108FA07F1A06D084398
:10145000A0654FF0000847B106EB05104068A7F102
:101460000801FF228A40104058B906EB0510806839
:1014700020B106EB05108168204688470021A16550
:1014800006E0FFE7681C05B27C20005BA842BCDCDC
:1014900000BFB8F1000F05D00021A16541462046EC
:1014A00000F0A0FA00BF90E70000FFFF70B504460F
:1014B0000D46FFF73FFF064606B970BD012C03D16C
:1014C000304600F077F905E0012C03DD304669680D
:1014D00000F036FE00BFF0E770B504460D46002D63
:1014E00025DDB4F974107420005B401E02B2742034
:1014F00002537020025B7220005B824202DD70208A
:10150000005B01E07220005B404281421DDC7020E4
:10151000015B7220005B814202DD7020005B01E014
:101520007220005B404201B2742001530DE0002D97
:101530000ADA7420005B401C01B2742001530029B8
:1015400003DD0021015370BDFDE72046FFF7C2FA1D
:101550007420005B18B90021A181E1811BE0722099
:10156000005B401DB4F974100844052190FBF1F2B2
:1015700001FB120104F15C0050F821603146206942
:1015800000F0B0FCA08100B9DDE7A189E18120462F
:10159000216900F085FE00BFD5E710B504460021A3
:1015A000742001537020005B002810DD7222125B52
:1015B00021690AB9052201E07222125B521E04F170
:1015C0005C0353F82200FEF7C8FD00B910BD72227B
:1015D000135B04F15C0252F82300216900F082FCE5
:1015E00028B17220005B401C81B272200153702030
:1015F000005B401C81B270200153052901DD0521EB
:1016000001537220005B052802DB00217220015388
:1016100000BFDBE72DE9F04104460D4616460020E9
:10162000A0810021E181206094F8800020F0010079
:10163000401C84F880002561062096FBF0F0A4F899
:101640005400742001537020015372200153002074
:101650000AE0B4F85420411C02FB015204F15C0181
:1016600041F82020411C08B20528F2DB0C48A06795
:101670000C4801887C2001532046FFF7C3F9002362
:1016800009A12046A26F00F0D2FA0746394620464B
:1016900000F00AFB0121204600F088FDBDE8F08142
:1016A000D8230008082500087978630070B504463F
:1016B0000D46A189B4F85400401E81420DDB31482B
:1016C0004168204600F0ECFD0121204600F06EFD4F
:1016D0002046216900F0E4FD70BDE089A1898842BF
:1016E00010D1A189481CA081206945540021A289FC
:1016F00020698154E089401CE0812946204600F0A1
:10170000E5FC3CE0E089A189884238DAA289E189D8
:10171000511A08B20AE0E1890144491E2269525C6B
:10172000E189014423695A54411E08B20028F2DCC1
:10173000E189481CE081206945540021A089401CB2
:1017400080B22269A0811154E089401E06B206E0F1
:101750002069815D204600F0B9FC701C06B2A089AA
:10176000B042F5DCA189E089081A06B205E008213B
:10177000204600F0ABFC701E06B2002EF7DC00BF66
:10178000AAE700001C00002010B5FFF7D3FD0446B7
:1017900014B1204600F0A2F810BD10B50446E0894F
:1017A000002806DD0821204600F090FCE089401E5C
:1017B000E08110BD10B50446204600F001F810BDD0
:1017C00070B50546AE6F10488168284600F068FD88
:1017D000002413E006EB0410407800F00F0001280D
:1017E0000ADC06EB04112846FFF74AF920B906EB9C
:1017F0000411284600F00AF8601C04B27C20405B0B
:10180000A042E7DC70BD00001C0000202DE9F04183
:1018100006460C462046FFF765FD0746394630462A
:1018200000F03EFDC0F1160005B2002D01DD284696
:1018300000E00420054600BF2021304600F046FCB1
:10184000681E00B2051EF7D1607800F00F00012875
:1018500005DC1F48016C304600F022FD25E0607871
:1018600000F00F00072805DC1948416C304600F0F5
:1018700017FD1AE0607800F00F00082805DC144816
:10188000816C304600F00CFD0FE0607800F00F0036
:10189000092805DC0E48C16C304600F001FD04E06B
:1018A0000B48016D304600F0FBFC0AA1304600F009
:1018B000F7FC2046FFF7FDFC07463946304600F0AE
:1018C0000DFC05A1304600F0EBFCBDE8F081000006
:1018D0001C000020202000000D0A000070B5064604
:1018E000B56F13484169304600F0DAFC00241AE075
:1018F00005EB0410407800F00F00082811DD05EB1F
:101900000410407800F00F0009280ADC05EB0411F0
:101910003046FFF7B5F820B905EB04113046FFF764
:1019200075FF601C04B27C20805BA042E0DC70BDCF
:101930001C00002070B50646B56F1348016930469B
:1019400000F0AEFC00241AE005EB0410407800F033
:101950000F00072811DD05EB0410407800F00F00A0
:1019600008280ADC05EB04113046FFF789F820B996
:1019700005EB04113046FFF749FF601C04B27C20E0
:10198000805BA042E0DC70BD1C00002070B5064604
:10199000B56F1348C168304600F082FC00241AE09D
:1019A00005EB0410407800F00F00012811DD05EB75
:1019B0000410407800F00F0007280ADC05EB041142
:1019C0003046FFF75DF820B905EB04113046FFF70C
:1019D0001DFF601C04B27C20805BA042E0DC70BD77
:1019E0001C00002070B504460D4694F8800020F0DD
:1019F000040084F8800029462046FFF757FE70BD9A
:101A0000F0B500220123002106E0002500F11404B6
:101A100044F821504C1C21B21029F6DB0024A0F818
:101A20005640002133E032B90469645C202C28D090
:101A30000469645C2CB30469645C222C04D10AB987
:101A4000012400E000242246012B0FD1B0F85640BB
:101A5000102C0ADA04696518B0F85660741CA0F8F6
:101A6000564000F1140444F8265000230469645CD5
:101A70005C2C0AD14C1C05692C5D34B14C1CA1B204
:101A800003E000250469655401234C1CA1B284893C
:101A90008C42C8DCF0BD70B5044600252BE004F193
:101AA000140050F82500007822280CD1002104F100
:101AB000140050F82500017004F1140050F82510AE
:101AC000491C40F8251004F1140151F82500FEF7D7
:101AD0003DFB86B204F1140050F82510701E085C1E
:101AE000222806D1002104F1140050F82520701E90
:101AF0001154681C85B2B4F85600A842CFDC70BD02
:101B000010B50446E089A189884207DAE289501CB1
:101B1000E0812069815C204600F0D8FA10BD000009
:101B200070B504460D4604B115B94FF0FF3070BDD5
:101B300094F88000C0F340062846FEF707FBB4F88F
:101B40005410491E884207D90B484168204600F0CE
:101B5000A7FB4FF0FF30EAE72946206900F0C2F901
:101B6000A0812046FFF76AF894F8800066F34100F0
:101B700084F880000020DAE71C00002070B50446DD
:101B80000D46002694F8800020F00200801C84F8A6
:101B90008000687800F00F0090B92046FFF77BFFC7
:101BA000B4F8560004F11401AA6890470646687814
:101BB000C0F3401048BB3146204600F02BFB2EE01E
:101BC000687800F00F00012811D1B4F8562004F114
:101BD000140329462046FFF792F906466878C0F3B9
:101BE000401090B93146204600F014FB17E06878A9
:101BF00000F00F00022809DB687800F00F000728CA
:101C000004DC2946204600F0F7F808E0687800F088
:101C10000F00082803D12946204600F045F894F823
:101C2000800020F0020084F88000304670BD2DE96D
:101C3000F0470646884614461F467C20805BB16FFD
:101C4000611AA0EB11101FFA80F9002528E004EBBF
:101C50000510407800F00F00092805D004EB0511AD
:101C60003046FEF70DFF00B118E004EB0510FFF75A
:101C700039FB824647B951464046FEF76EFA60B9D5
:101C800004EB0510BDE8F0873A4651464046FEF7A2
:101C900072FA10B904EB0510F4E700BF681C85B2B6
:101CA0004D45D4DB0020EDE770B504460D462560B8
:101CB000A86860B1A868FEF749FA40B1B4F85600C8
:101CC000022806DBA169A868FEF747FA08B90120D7
:101CD00000E0002014F8801F60F30001217014F868
:101CE000800900F0010020B102480168204600F0A0
:101CF000D7FA70BD1C0000202DE9F04106460F46C2
:101D0000FFF718FB054615B90020BDE8F081002358
:101D100031462846AA6FFFF78AFF044634B91148B6
:101D2000816A284600F0BCFA0020EEE7607800F0F7
:101D30000F00022804DB607800F00F0007280ADD9E
:101D40003146284600F0ACFA0648416A284600F0C1
:101D5000A7FA0020D9E73A462146284600F004F8C1
:101D6000D3E700001C00002070B506460C4615465F
:101D70006078C0F3801028B11E48016A304600F038
:101D80008FFA32E0607800F00F00801E06282AD219
:101D9000DFE800F003060A0D1218A068056023E0D2
:101DA00029B2A06801801FE0A06805701CE02946E8
:101DB000A06800F097F817E00E48C169304600F0BF
:101DC0006FFA11E0A068806860B1A068006828B16F
:101DD000A1688A6808682946904703E0A06881687E
:101DE0002846884700E000BF00BF2146304600F08B
:101DF00003F870BD1C000020FEB505460C4626A267
:101E000007CA8DE8070021462846FFF7ADFA0746C6
:101E10002846616800F044FA22A1284600F040FA02
:101E2000607800F00F0005280CD11FA1284600F0B3
:101E300037FA3946284600F033FA1BA1284600F04D
:101E40002FFA21E06946384600F0E0F8C0F10B00B7
:101E5000694646183146284600F022FA13A1284662
:101E600000F01EFA002004E030210DF80010411CA3
:101E700008B20B28F8DB6946384600F0F2F86946EC
:101E8000284600F00DFA00BF00BF0AA1284600F066
:101E900007FA3846FEBD0000303030303030303088
:101EA00030303000203D2000220000002C2030780F
:101EB000000000000D0A000030B502460B4600206D
:101EC000002108E0545C5D5CAC4200D008E0441C9A
:101ED000A0B24C1CA1B2545C14B15C5C002CF1D1DA
:101EE00000BF30BD0246002003E00B5C1354431CCE
:101EF00098B20B5C002BF8D1135470472DE9F84FC2
:101F00000446B4F854A04FF000080025A08938B961
:101F10002046FFF74FFC0121204600F047F970E012
:101F2000A08900286DDD0021A28920698154A66F57
:101F3000002737E006EB07112046FEF7A1FD78BB2E
:101F400006EB0710FFF7CEF9834659462069FFF7E5
:101F5000B3FFA189884223D1F5B1012D03D12AA174
:101F6000204600F09DF906EB08112046FFF74EFCD5
:101F700006EB0710FFF7B6F9834606EB0810FFF7EC
:101F8000B1F959460090FFF797FF8146CA4501DD38
:101F9000484600E0504682461FFA87F8681C85B222
:101FA000781C07B27C20005BB842C3DC0DB9BDE8E9
:101FB000F88F012D02D12046FEF78CFD4DB106EBC6
:101FC0000810FFF78FF9074639462069FFF78AFFA7
:101FD000A081012D0ADD06EB08112046FFF716FC53
:101FE0000121204600F0E2F8A4F80CA00021A2890B
:101FF00020698154A189E1812046216900F050F9CE
:1020000000BF00BFD3E700000D0A000030B5024654
:102010000B241346002A00DA53420020C8720DE058
:102020000A2093FBF0F500FB15303030C5B2601E7E
:10203000C0B204460D540A2093FBF0F3002BEFD1FD
:10204000002A04DA2D25601EC0B204460D5422B9C0
:102050003025601EC0B204460D54C4F10B0040B2DE
:1020600030BD30B502460B460824002018720EE041
:1020700002F00F01092902DD01F1570001E001F131
:102080003000C5B2601EC0B204461D541209002AB9
:10209000EED1C4F1080040B230BD10B504460121B4
:1020A0002046FFF719FA10BD10B5FFF743F90446B3
:1020B00014B12046FFF73EFC10BD10B5FFF73AF90A
:1020C000044614B12046FFF761FC10BD13B5044669
:1020D000012101A8D4F8882090471CBD2DE9F041CA
:1020E00004460F4600253E46D4F8880010B900206B
:1020F000BDE8F08102E0761C681C85B2307828B11A
:1021000030780D2802D030780A28F4D1242D0ADD49
:1021100024213846D4F888209047032107A0D4F81A
:102120008820904704E029463846D4F88820904714
:10213000242D01DD2420DBE72720D9E72E2E2E00D9
:102140002DE9F04104460E46002331462046A26F99
:10215000FFF76DFD0546EDB11248C16A204600F05B
:102160009FF82846FFF7BEF807463946204600F09C
:1021700097F80DA1204600F093F82846FFF799F84C
:1021800007463946204600F08BF807A1204600F0AC
:1021900087F804E003488169204600F081F8BDE833
:1021A000F08100001C0000200D0A000070B50446FC
:1021B0000D4694F8800000F00100D8B11DB110A1C7
:1021C000204600F06DF820684168204600F068F86D
:1021D0000CA1204600F064F8A06808B1A06800E0F7
:1021E00009A00146204600F05BF808A1204600F057
:1021F00057F804E00648016B204600F051F870BD26
:102200000D0A00003A0000002F000000242000000A
:102210001C000020FEB505460C4618A2D2E90010AD
:102220009268CDE90102009117A1284600F038F824
:1022300069462046FFF7EAFEC0F10B0069464618E2
:102240003146284600F02CF812A1284600F028F864
:10225000002004E030210DF80010411C08B20B28CA
:10226000F8DB69462046FFF7FCFE6946284600F089
:1022700017F80AA1284600F013F8FEBD30303030C0
:10228000303030303030300052657475726E3A2024
:10229000000000002C203078000000000D0A000033
:1022A0002DE9F04104460D4600262F46D4F888005B
:1022B00010B90020BDE8F08101E0701C86B217F86B
:1022C000011B0029F9D131462846D4F888209047CF
:1022D00080B2EFE710B500F041F800F01DF800F013
:1022E00001F810BD08B50020009025208DF80000F1
:1022F00000208DF801008DF8020001208DF8030008
:102300006846FEF7A3F8012240F225510148FEF786
:1023100069FA08BD003801401FB500200090019007
:10232000029003904FF4E13000900020ADF80400DB
:10233000ADF80600ADF808000C20ADF80A0000204A
:10234000ADF80C0069460448FEF772FA0121024814
:10235000FEF705FA1FBD00000038014008B5002057
:1023600000904FF40070ADF8000018208DF80300C5
:1023700003208DF8020069460848FDF7D6FF4FF4A8
:102380008060ADF8000004208DF8030003208DF874
:10239000020069460148FDF7C8FF08BD000801407A
:1023A00001490860704700000400002001490870DE
:1023B000704700000000002010B504462146054883
:1023C000FEF7A7FA00BF40210248FEF7D4F9002823
:1023D000F9D010BD0038014000080000D8270008DF
:1023E000CC28000860280008000100002828000808
:1023F000F91C0008482800080009000000415B1B88
:102400009B200008242800080009000000425B1BF4
:10241000190C0008142800080019000000435B1B79
:10242000011B0008A02800080019000000445B1BE5
:102430009B17000898280008000900000000000908
:10244000FD1E0008D4270008001900000000000845
:102450002D0A0008EC270008001900000000007F8A
:102460000F0B000808280008001900007E335B1BD2
:102470000F0B000808280008001900000000000ADF
:10248000290C000870280008001900000000000D49
:10249000290C000870280008002000001C280008F3
:1024A000AD140008B42700080021000088280008A7
:1024B000A920000850280008002100007828000802
:1024C000FD0A0008DC270008002100008028000821
:1024D000BB200008382800080021000090280008D0
:1024E00089170008A82800080021000030280008EB
:1024F000B90A0008F8270008002100001028000889
:1025000059090008B8280008130000000D0A436F9D
:102510006D6D616E64204C6973743A0D0A000000A1
:102520000D0A566172204C6973743A0D0A0000005E
:102530000D0A55736572204C6973743A0D0A0000D8
:102540000D0A4B6579204C6973743A0D0A0000003E
:10255000436F6D6D616E64206E6F7420466F756E93
:10256000640D0A000D0A5761726E696E673A204366
:102570006F6D6D616E6420697320746F6F206C6F76
:102580006E670D0A00000000206973206E6F7420D2
:1025900061207661720D0A0063616E277420736595
:1025A000742072656164206F6E6C79207661720DA3
:1025B0000A00000063616E27742073657420706FD9
:1025C000696E7465720D0A000D0A205F20202020BC
:1025D00020202020205F2020205F2020202020207D
:1025E0002020202020202020202020205F202020AC
:1025F000202020202020205F205F200D0A7C207CCE
:10260000202020205F5F5F7C207C5F7C207C5F201F
:102610005F5F5F205F205F5F2020205F5F5F7C2027
:102620007C5F5F2020205F5F5F7C207C207C0D0A28
:102630007C207C2020202F205F205C205F5F7C207E
:102640005F5F2F205F205C20275F5F7C202F205F53
:102650005F7C20275F205C202F205F205C207C2077
:102660007C0D0A7C207C5F5F7C20205F5F2F207CBC
:102670005F7C207C7C20205F5F2F207C202020201E
:102680005C5F5F205C207C207C207C20205F5F2FB3
:10269000207C207C0D0A7C5F5F5F5F5F5C5F5F5F1B
:1026A0007C5C5F5F7C5C5F5F5C5F5F5F7C5F7C200E
:1026B0002020207C5F5F5F2F5F7C207C5F7C5C5FE5
:1026C0005F5F7C5F7C5F7C0D0A0D0A4275696C64FC
:1026D0003A2020202020202046656220203520320C
:1026E0003032352031373A32353A34370D0A5665B3
:1026F0007273696F6E3A2020202020332E312E32E3
:102700000D0A436F707972696768743A2020202837
:1027100063292032303230204C65747465720D0AA2
:10272000000000000D0A70617373776F726420659A
:1027300072726F720D0A0000566172206E6F742003
:10274000466F756E740D0A001B5B324B0D00000066
:10275000434D44200000000056415220000000007C
:102760004B45592000000000636F6D6D616E642061
:1027700068656C70206F6620000000000D0A506CC8
:102780006561736520696E7075742070617373770D
:102790006F72643A000000004E4F4E45000000008A
:1027A0001B5B324A1B5B3148000000005553455209
:1027B0000000000073686F7720636F6D6D616E6459
:1027C00020696E666F0D0A68656C70205B636D64CE
:1027D0005D00000074616200797863006C69737455
:1027E00020616C6C20636D64000000006261636BAB
:1027F0007370616365000000636C65617220636FD4
:102800006E736F6C6500000064656C657465000034
:1028100073680000646F776E0000000068656C707C
:10282000000000007570000073657456617200004E
:10283000636C6561720000006C69737420616C6C7C
:10284000207661720000000073657420766172006A
:102850006C69737420616C6C207573657200000084
:1028600064656661756C74207573657200000000A4
:10287000656E746572000000636D64730000000093
:10288000766172730000000075736572730000005A
:102890006B657973000000006C65667400000000D1
:1028A00072696768740000006C69737420616C6CF5
:1028B000206B65790000000072756E20636F6D6D8E
:1028C000616E64206469726563746C790000000055
:1028D000F028000800000020700000001E09000819
:1028E0006029000870000020A80600002E090008DA
:1028F00000000000000000000000000001020304CE
:10290000010203040607080902040608C825000896
:10291000642500080C250008202500083025000843
:102920004025000850250008B42500089825000817
:102930008825000838270008682700087C27000839
:1029400024270008A027000848270008502700086F
:1029500058270008AC2700086027000898270008BF
:04000005080000ED02
:00000001FF
