:020000040800F2
:10000000A02F002001010008AD0A0008A50A000881
:10001000A90A0008890900087F0F000800000000F5
:10002000000000000000000000000000190C0008A3
:100030008D09000800000000210B0008050D0008D4
:100040001B0100081B0100081B0100081B01000820
:100050001B0100081B0100081B0100081B01000810
:100060001B0100081B0100081B0100081B01000800
:100070001B0100081B0100081B0100081B010008F0
:100080001B0100081B0100081B0100081B010008E0
:100090001B0100081B0100081B0100081B010008D0
:1000A0001B0100081B0100081B0100081B010008C0
:1000B0001B0100081B0100081B0100081B010008B0
:1000C0001B0100081B0100081B0100081B010008A0
:1000D0001B010008690D00081B0100081B01000836
:1000E0001B0100081B0100081B010008DFF80CD0F1
:1000F00000F048FB00480047FD1C0008A02F00202E
:100100000648804706480047FEE7FEE7FEE7FEE7B1
:10011000FEE7FEE7FEE7FEE7FEE7FEE7090D000863
:10012000ED000008D2B201E000F8012B491EFBD21D
:1001300070470022F6E710B513460A4604461946F2
:10014000FFF7F0FF204610BD421C10F8011B0029EC
:10015000FBD1801A704710B5002200E0521C835C6E
:100160008C5CA34201D1002BF8D1D8B2E1B2401A85
:1001700010BD30B505460020034600E05B1C9342ED
:1001800005D2EC5CC85C201A01D1002CF6D130BD40
:1001900070B5064600F01CFF046805460A220021DF
:1001A000304600F0C7F82C6070BD80EA010210B53F
:1001B00002F00043400022D04A001FD0010E01EBA4
:1001C0001261C0F35600C2F3560240F4000042F43C
:1001D0000002A0FB022000047F39140400D0401C60
:1001E00050EA124001D44000491EC2B20C0604EB92
:1001F000D010401C4008802A02D003E0002010BD2F
:1002000020F00100002900DA0020184310BD30B4AE
:1002100080EA010202F0004530F0004221F0004087
:1002200013D090B1C30DD40DC2F31601C0F3160064
:10023000E41A41F4000140F400027D34914201D3FC
:10024000641C00E04900002C02DA30BC002070473A
:100250004FF400000023914201D3891A0343400860
:100260004FEA4101F7D151B1914202D14FF0004123
:1002700005E002D24FF0010101E06FF0010103EB54
:10028000C450284430BC00F08DB8C10F80EAE07043
:100290000844CA079623002100F08DB89623002257
:1002A000114600F088B830B50B46014600202022E8
:1002B000012409E021FA02F59D4205D303FA02F573
:1002C000491B04FA02F52844151EA2F10102F1DCD3
:1002D00030BD2DE9F05F0546002092469B468846DA
:1002E0000646814640241BE02846414647462246B2
:1002F00000F069FA53465A46C01A914110D311468C
:100300001846224600F050FA2D1A67EB01084F46B6
:1003100022460120002100F047FA17EB00094E4168
:10032000201EA4F10104DFDC484631462A4643463C
:10033000BDE8F09F2DE9F04791460F468046044600
:10034000002614F8015B2DB100F060FA0068405DF2
:10035000C007F6D12B2D02D02D2D18D0641E4A4691
:100360003946204600F056FA27B13968A14201D13A
:10037000C7F8008071054FF002040BD540420028F9
:1003800003DD00F025FE0460A007BDE8F08746F419
:100390008066E4E70028F8DA00F01AFE04606FF0E7
:1003A0000040F2E70029A8BF7047401C490008BF81
:1003B00020F00100704710B4B0FA80FC00FA0CF095
:1003C00050EA010404BF10BC704749B1CCF12004CD
:1003D00021FA04F411FA0CF118BF0121214308435A
:1003E000A3EB0C01CB1D4FEA00614FEA102042BF86
:1003F000002010BC704700EBC35010440029A4BF7C
:1004000010BC7047401C490008BF20F0010010BC20
:1004100070472DE9FE4F804681EA0300C00F0C466D
:10042000009021F0004123F00045B8EB0200A94103
:1004300005D24046214690461C460B46024623F014
:100440000040104347D0270DC7F30A00C3F30A51F9
:100450000290401A019040286BDAC3F3130040F475
:10046000801B0098924620B10023D2EB030A63EB75
:100470000B0B01985946C0F14002504600F094F928
:1004800006460D4650465946019A00F0ACF910EB6D
:1004900008006141002487EA115284EAE7731A4395
:1004A00040D0009A62B3019A012A4FEA075215DC44
:1004B000001B61EB02014FF0004202EA0752CDE956
:1004C0000042001C41F5801132462B4600F000FA34
:1004D00003B0BDE8F08F40462146F9E7001B61EB11
:1004E0000201001C41F5801300185B412018A2F5A1
:1004F000001747EB030140EAD570B6196D4111E0D2
:100500006D084FEA360645EAC0754FEA0752001BF0
:1005100061EB0201001C41F5801149084FEA3000EF
:100520000019514132462B4603B0BDE8F04F00F0B0
:10053000C0B90098012240000023D0EB020263EB17
:10054000E073009821464FEAE074B8EB000061EBDD
:100550000401E9E783F000435BE781F0004158E7DD
:100560002DE9FE4F81EA030404F0004421F000412C
:1005700000944FF0000B23F0004350EA01045ED0DA
:1005800052EA03045BD0C3F30A54C1F30A552C4466
:10059000A4F2F3340194A0FB0254C1F3130141F41B
:1005A0008011C3F3130343F4801301FB024400FBE7
:1005B000034E840A970A44EA815447EA8357A4FB0E
:1005C000076802958D0A05FB07854FEA932C04FB0B
:1005D0000C542705029D4FEA065847EA1637B5EB3B
:1005E00008056EEB070C870E920E47EA811742EA68
:1005F0008312A7FB0201B6EB0B0164EB00042B0D89
:1006000043EA0C335E1844EB1C50DA465146E7FBD4
:100610000201C5F313044FEA0B3343EA14534FEAC4
:100620000432019C43EA0603A4F10C040294009CEA
:10063000CDE900B400F04CF903B0BDE8F08F002024
:100640000146F9E72DE9F04D81EA030404F0004B7F
:1006500021F0004514464FF0000A23F0004150EA13
:10066000050220D054EA01021DD0C5F30A57024604
:10067000C5F31303C1F31300C1F30A5640F4801508
:1006800043F48013A7EB0608101BD64608F2FD388A
:1006900073EB050002D308F1010801E092185B41F9
:1006A000B8F1000F03DA00200146BDE8F08D00200C
:1006B0004FF48011064684460EE0171B73EB0507C6
:1006C00005D3121B63EB050306434CEA010C4908F2
:1006D0004FEA300092185B4150EA0107EDD152EA2F
:1006E000030012D082EA040083EA0501084305D022
:1006F000101BAB4106D20122002306E000224FF07E
:10070000004302E06FF0010253101AEB06004CEBBD
:10071000085110EB0A0041EB0B01BDE8F04D00F071
:10072000C8B8C1F30A52C1F3130140F2FF3341F4D8
:1007300080119A4202DA00200146704740F23343AA
:100740009A42A2F2334202DC524200F03CB800F07E
:100750002BB8000030B5041E71F1000404DB4FF02B
:100760000044404264EB0101141E73F1000405DBF8
:100770001C464FF00043524263EB0403994208BF0A
:10078000904230BD064C074D06E0E06840F00103A2
:1007900094E8070098471034AC42F6D3FFF7AAFC60
:1007A0006441000884410008202A04DB203A00FA52
:1007B00002F1002070479140C2F1200320FA03F3B8
:1007C000194390407047202A04DB203A21FA02F0B6
:1007D0000021704721FA02F3D040C2F1200291407B
:1007E000084319467047202A06DBCB17203A41FA06
:1007F00002F043EAE07306E041FA02F3D040C2F1AE
:100800002002914008431946704700000048704795
:10081000883D00082DE9F05F8246007800271546E4
:100820008B460AF10104B946302801D09DB113E08E
:1008300014F8010B0127782803D0582801D045B1BE
:100840000AE00DB1102D07D10027102514F8010B77
:1008500002E0082500E00A250026B0460EE005FB70
:10086000080005FB06F1012701EB10461FFA80F88E
:10087000B6F5803F00D3B94614F8010B294600F0C5
:1008800075F80028EBDABBF1000F05D00FB1641E3C
:1008900000E05446CBF80040B9F1000F06D000F05C
:1008A00097FB02210160C81EBDE8F09F48EA0640A0
:1008B000FAE710B5141E73F1000408DA401C41F188
:1008C000000192185B411A4301D120F0010010BDD4
:1008D0002DE9F04D92469B4611B1B1FA81F202E04A
:1008E000B0FA80F220329046FFF75EFF04460F46D2
:1008F00040EA0A0041EA0B0153465A46084313D026
:10090000114653EA010019D0C8F140025046FFF7E2
:100910005AFF05460E46504659464246FFF744FFE9
:10092000084305D0012004E020463946BDE8F08D9B
:100930000020054346EAE0762C4337430A986305D6
:10094000E40AA0EB08000022FD0A44EA47540A30FA
:1009500002D500200146E9E7010510196941DDE9EA
:10096000084500196941BDE8F04DA2E73A2800D2D8
:10097000303820F02002412A01D3A2F1370088420A
:1009800001D34FF0FF30704700BFFEE770472DE9FD
:10099000F041024600250026002000230024002705
:1009A00091F803C00CF00F0591F803C00CF0100C87
:1009B000BCF1000F03D091F802C04CEA050591F894
:1009C00000C0BCF1000F31D0146800202BE04FF0C4
:1009D000010C0CFA00F3B1F800C00CEA03069E42C9
:1009E00020D183004FF00F0C0CFA03F7BC4305FA3B
:1009F00003FC4CEA040491F803C0BCF1280F06D1B3
:100A00004FF0010C0CFA00FCC2F814C00AE091F897
:100A100003C0BCF1480F05D14FF0010C0CFA00FCEB
:100A2000C2F810C0401C0828D1D31460B1F800C02F
:100A3000BCF1FF0F34DD546800202EE000F1080CFB
:100A40004FF0010808FA0CF3B1F800C00CEA0306F5
:100A50009E4221D183004FF00F0C0CFA03F7BC43E8
:100A600005FA03FC4CEA040491F803C0BCF1280F1A
:100A700005D100F1080C08FA0CF8C2F8148091F8BE
:100A800003C0BCF1480F07D100F1080C4FF001087A
:100A900008FA0CF8C2F81080401C0828CED3546025
:100AA000BDE8F08100BFFEE700BFFEE77047000031
:100AB00070B5002100230F22C47804B3154C2468BC
:100AC00004F4E064C4F5E064210AC1F10403CA40FF
:100AD000447804FA03F184781440214309010E4C50
:100AE0000678A155047804F01F050124AC40057870
:100AF0006D11AD0005F1E025C5F8004109E004786D
:100B000004F01F050124AC40044D0678761145F829
:100B1000264070BD0CED00E000E400E080E100E064
:100B20007047000029B1064A92690243044B9A615A
:100B300004E0034A92698243014B9A6170470000C6
:100B40000010024030B500210022002400232D4D6A
:100B50006D6805F00C0121B1042905D0082923D1C5
:100B600005E0294D056022E0274D05601FE0254D79
:100B70006D6805F47012234D6D6805F4803402250C
:100B800005EB92421CB9214D554305600BE01D4D0C
:100B90006D6805F400351DB11C4D5543056002E03C
:100BA000194D5543056002E0174D056000BF00BFB9
:100BB000144D6D6805F0F0010909154D6B5C056871
:100BC000DD4045600F4D6D6805F4E061090A104D88
:100BD0006B5C4568DD4085600A4D6D6805F46051C9
:100BE000C90A0B4D6B5C4568DD40C560054D6D68FD
:100BF00005F44041890B074D6B5CC568B5FBF3F507
:100C0000056130BD0010024000127A0000093D006D
:100C10000C0000201C000020704710B500F002F806
:100C200010BD00000CB50020019000903348006812
:100C300040F480303149086000BF3048006800F45B
:100C4000003000900198401C0190009818B901985C
:100C5000B0F5A06FF1D12948006800F4003010B160
:100C60000120009001E0002000900098012843D16D
:100C70002348006840F010002149086008460068D9
:100C800020F0070008600846006840F00200086095
:100C90001A48406819494860084640684860084654
:100CA000406840F4806048600846406820F47C104A
:100CB00048600846406840F4E8104860084600680C
:100CC00040F08070086000BF0C48006800F00070C1
:100CD0000028F9D00948406820F00300074948601F
:100CE0000846406840F00200486000BF0348406882
:100CF00000F00C000828F9D10CBD000000100240E3
:100D0000002002407047000010B51348006840F012
:100D100001001149086008464068104908400E4922
:100D20004860084600680E4908400B4908600846BC
:100D3000006820F4802008600846406820F4FE0027
:100D400048604FF41F008860FFF767FF4FF00060B6
:100D50000449086010BD0000001002400000FFF8C8
:100D6000FFFFF6FE08ED00E010B540F225510B48FC
:100D700000F040F880B1094800F0F8F8C4B2084823
:100D8000006818B1204606490968884740F2255195
:100D9000024800F007F800BF10BD00000038014015
:100DA0000800002010B50022002340F66A14A1427A
:100DB00000D100BF0A1201249440A3B2DC43048096
:100DC00010BD21B1828942F40052828104E08289FF
:100DD0004DF6FF731A408281704702460020B1F53C
:100DE000007F00D100BF13880B400BB1012000E051
:100DF0000020704770B50246002400230025002023
:100E000040F66A16B14200D100BFC1F3421501F0AD
:100E10001F03012606FA03F3012D02D19689334000
:100E200006E0022D02D1168A334001E0968A334053
:100E30000C12012606FA04F41688344013B10CB1E2
:100E4000012000E0002070BDF0B50346002400261C
:100E50000025002040F66A17B94200D100BF1846AD
:100E6000C1F3421401F01F06012707FA06F5012C11
:100E700001D10C3004E0022C01D1103000E014301C
:100E80001AB107682F43076002E00768AF430760A5
:100E9000F0BD00002DE9F04786B005460E4600245F
:100EA000A24600BFA1460027B08900B100BF2F466F
:100EB0002C8A4CF6FF700440F08804432C82AC89E5
:100EC0004EF6F3100440B088318908437189084315
:100ED0000443AC81AC8A4FF6FF400440B089044320
:100EE000AC8201A8FFF72EFE1F48874202D1DDF831
:100EF00010A001E0DDF80CA0A88900F4004040B18A
:100F00000AEBCA0000EB0A1031684900B0FBF1F8A7
:100F100007E00AEBCA0000EB0A1031688900B0FB59
:100F2000F1F86420B8FBF0F004012009642101FB12
:100F30001089A88900F4004040B1322000EBC900BC
:100F4000B0FBF1F000F00700044308E0322000EBB2
:100F500009106421B0FBF1F000F00F0004432C8174
:100F600006B0BDE8F08700000038014001468888DF
:100F7000C0F308007047C1F308028280704700BFC9
:100F8000FEE700000FB4054B10B503A9044A029810
:100F900000F0F4F810BC5DF814FB0000A71C00087A
:100FA000740000207CB5044600201D46164600292A
:100FB0000BD0491ECDE90041044B6A462946304614
:100FC00000F0DCF8009A002111707CBDC718000801
:100FD000004870477800002002E008C8121F08C1CE
:100FE000002AFAD170477047002001E001C1121FAA
:100FF000002AFBD1704700002DE9FF5F82B000217D
:10100000DDE90430020DDDF840B0034318D044F6AA
:101010001050A2F2FF3242431514119801281FD03C
:10102000A5EB0B00401C5FEA000A4FF000064E4F94
:10103000DFF83891B046504615D5CAF1000413E0E8
:10104000119801244AA3012801D16FEA0B010298EB
:10105000119AC0E90031C0E9024206B0BDE8F09F34
:10106000CBF10000DFE704460021404A491842EB7B
:101070000450CDE9001012E0E00707D032463B46AD
:1010800040464946FFF76CFA8046894632463B4661
:1010900010461946FFF764FA06460F466410002C06
:1010A000EAD1DDE90401DDE90023BAF1000F06DA37
:1010B000FFF756FA42464B46FFF752FA05E0FFF7B4
:1010C000C1FA42464B46FFF7BDFA04460E460022DF
:1010D000284BFFF73FFB03D84FF0FF30014607E0F6
:1010E0000022254B20463146FFF793F9FFF719FB05
:1010F000102409E0002C0ADB0A220023FFF7E9F89C
:10110000039B30321A55641E50EA0102F2D1641C6E
:10111000039AC4F111031444119A012A03D0012245
:1011200008430DD10AE0084304D000204FF0110B12
:10113000119072E7A3EB0B056D1E0DE05B4504DD1E
:101140004FF0000205F1010504E003DA4FF0000260
:10115000A5F10105002AECD002981199C0E90231ED
:10116000C0E9004579E70000000014400000F03FAE
:10117000300000000000F0430000E03F2DE9FF4F89
:1011800095B09B468946064600250FE2252877D173
:1011900000242746F84A0121059400E0044316F88C
:1011A000013F203B01FA03F01042F7D130782A28A2
:1011B00011D06FF02F033078A0F13002092A16D831
:1011C000059A44F0020402EB820203EB420210444F
:1011D000761C0590EFE759F8042B0592002A03DAF4
:1011E000504244F40054059044F00204761C3078D8
:1011F0002E2816D116F8010F44F004042A280DD029
:101200006FF02F023078A0F13003092B09D807EBDB
:10121000870302EB4303C718761CF3E759F8047BF6
:10122000761C30786C280FD006DC4C2817D0682844
:101230000DD06A2814D104E0742810D07A280FD178
:101240000DE044F400140AE044F4801401E044F496
:1012500040147278824202D104F58014761C761C08
:10126000307866280BD013DC582877D009DC0028AA
:1012700075D04528F6D04628F4D047281AD19DE1EC
:1012800018E0632835D0642879D0652812D195E11B
:10129000702873D008DC6728F1D069286FD06E28D9
:1012A0000DD06F2806D1B5E073282CD0752875D0E5
:1012B000782874D05A46179990476D1C75E1C4F38D
:1012C0000250022809D003280DD0D9F800100428B4
:1012D0000DD00D6009F1040967E1D9F80010EA1793
:1012E000C1E90052F6E7D9F800100D80F2E70D7061
:1012F000F0E719F8041B8DF8001000208DF80100AC
:10130000EA46012003E059F804AB4FF0FF306107D3
:101310004FF0000102D40DE008F101018846B94206
:101320000FDA8045F8DB1AF808100029F4D108E03C
:1013300008F1010188468142FADB1AF808100029F9
:10134000F6D105985B46A0EB080721463846179A68
:1013500000F094FA284400EB080507E04DE029E18D
:101360000DE01AF8010B5A4617999047B8F1010899
:10137000F7D25B4621463846179A13E142E00A222B
:101380000092C4F302524FF0000A022A08D059F822
:1013900004CB032A4FEAEC710AD00DE029E02AE0E1
:1013A00009F1070121F00702F2E802C1914609E0C4
:1013B0000FFA8CFC4FEAEC71042A03D14FFA8CFC33
:1013C0004FEAEC71002907DA0A460021DCF1000C33
:1013D00061EB02012D2202E0220504D52B228DF8BB
:1013E0000420012203E0E20701D02022F7E7904623
:1013F00059E00A2102E010220DE010214FF0000A0E
:1014000000910BE010224FF0000A44F0040408277A
:10141000009203E008224FF0000A0092C4F3025247
:10142000022A05D059F804CB0021032A08D009E08C
:1014300009F1070121F00702F2E802C1914605E037
:101440001FFA8CFC042A01D10CF0FF0C4FF00008AD
:10145000220728D5702806D0009B83F0100353EA9A
:101460000A0305D00EE040228DF80420012208E096
:101470005CEA010206D030228DF804208DF80500C8
:1014800002229046009B83F0080353EA0A030AD124
:101490005CEA010201D1620705D530228DF80420F3
:1014A0004FF001087F1E582804D034A003900EA8E6
:1014B00002900DE036A0F9E753466046009AFEF729
:1014C00008FF84460398825C0298401E02900270D6
:1014D0005CEA0100F0D1029806A9081A00F1200A7E
:1014E000600702D524F4803400E00127574502DD6F
:1014F000A7EB0A0000E0002000EB0A01009005982D
:101500004144401A0590E00306D45B462146179AF1
:10151000059800F0B3F90544002706E001A85A46F3
:10152000C05D179990476D1C7F1C4745F6DBE003B3
:101530000CD55B462146179A059800F09FF90544A3
:1015400004E030205A46179990476D1C0099481EB8
:1015500000900029F5DC08E0029802995A460078CC
:10156000491C0291179990476D1CBAF10001AAF12C
:10157000010AF1DC65E10000092801003031323355
:1015800034353637383961626364656600000000BF
:1015900030313233343536373839414243444546A9
:1015A0000000000000F058F90544761C307800284F
:1015B0007FF4ECAD19B02846BDE8F08F620700D487
:1015C000062709F1070222F0070CFCE80223E14696
:1015D00003F000485FEA080C02D00FF2702C0DE017
:1015E0005FEA045C02D50FF2682C07E05FEAC47C76
:1015F00002D00FF2602C01E0AFF2700C4FF0FF3818
:1016000023F00043CDF850C065280CD006DC4528F7
:1016100009D046281DD047283DD13DE0662818D086
:1016200067287ED138E00021112F01DB112000E076
:10163000781CCDE9000106A90EA8FFF7DDFCDDE965
:101640000F010E9A03910021009207F1010A049103
:101650004DE04FF000400097CDE9011006A90EA81B
:10166000FFF7CAFCDDE90F0203920E9B11990022DD
:10167000DDF80CA00093049211B9791C00EB010A6B
:10168000B7EB0A0004D4C0F1FF3007F1010A04905F
:10169000AAEB0700019044E0012F00DA01270021A6
:1016A000112F01DD112000E03846CDE9000106A927
:1016B0000EA8FFF7A1FCDDE90F010E9A03910021AE
:1016C00004910092BA4621070CD40399514500DADF
:1016D0008A46BAF1010F05DD009AAAF10101515CB9
:1016E000302908D0B84202DA10F1040F06DA0121DD
:1016F000CDE9011015E0AAF10101E9E7002805DCB8
:10170000049901440491AAEB000102E0411C5145F7
:1017100000DD8A460499401A401C01904FF00040B9
:101720000290200704D40198504501DBCDF80480D5
:1017300000208DF84F0002980DF14F07B0F1004FD7
:1017400025D02B200E9002984FF0020800280CDACA
:10175000404202902D200E9007E00A210298FEF7E9
:10176000A2FD3031029007F8011DB8F10001A8F187
:101770000108F2DC02980028EFD1791E0E9808705B
:10178000307800F0200040F0450007F8020D12A864
:10179000C01B00F107081498007800B1012000EB8D
:1017A0000A01019801EBE07105984144401A401E7E
:1017B0000590E00306D45B462146179A059800F091
:1017C0005DF805441498007818B15A461799904767
:1017D0006D1CE00324D55B462146179A059800F05E
:1017E0004DF805441CE00498002807DBDDE90301FF
:1017F000884203DD0098405C179901E0179930207A
:101800005A469047049805F10105401C0490019840
:10181000401E019004D12E205A46179990476D1C06
:10182000BAF10001AAF1010ADDDC05E017F8010BAD
:101830005A46179990476D1CB8F10001A8F10108AC
:10184000F4DC5B462146179A0598ABE62D000000B4
:101850002B000000200000002DE9F0410446002587
:101860001E461746880404D405E039462020B047B8
:101870006D1C641EF9D52846BDE8F0812DE9F041C4
:10188000044600251E469046C80301D5302700E0D7
:101890002027880404D505E041463846B0476D1C32
:1018A000641EF9D52846BDE8F08170B506460C46A1
:1018B000002504E0705D02F075F9681C85B2A54250
:1018C000F8DB20B270BD4A68002A06D00A68531CB3
:1018D0000B6010704868401E486070472DE9F04169
:1018E00004460E46002774B13146204600F023F826
:1018F0000546B5F1804F05D20C2D01D9284600E0F0
:101900000C20074600BF3846BDE8F0812DE9F05FA6
:101910000446894692469B460AADE0CD00F0BEFFE4
:101920008046214601F0CCFBBDE8F09F0246481EF0
:101930001040101A70470246481E10444B1E984330
:10194000704770B504460D46284600F0FDF8001DAE
:10195000616808446060204600F030F8204670BDA1
:1019600070B505460C46284600F0EEF804F110016B
:10197000884201D3012070BD0020FCE70146A1F19F
:10198000080070477CB505460C46204600F0DCF8A0
:1019900006466A4601A900F0F7F921462846DDE926
:1019A000003200F089F97CBD0146087900F00100A1
:1019B00070470146087900F00200704770B5044690
:1019C000204600F06AF805462C60284670BD7CB5BC
:1019D00006460C4600200190009000256CB16A4636
:1019E00001A9204600F0EDF90198182805DA6A46A9
:1019F00001A9304600F080FA05462DB1294630464F
:101A0000DDE9003200F04EFA28467CBD70B5044690
:101A10002046FFF7D3FF0546284600F080F8204611
:101A200000F078F870BD70B50446204600F035F837
:101A30000546284600F078F8204600F080F870BD92
:101A400070B505460C46204600F027F8064630469D
:101A5000FFF7AAFF40B13146284600F049F8314669
:101A60002046FFF76EFF0446204670BD70B5054660
:101A70000C462046FFF79DFF68B1204600F035F880
:101A800006463146284600F033F821463046FFF737
:101A900058FF044600BF204670BD2DE9F0410446C2
:101AA000204600F051F8061F204600F071F8074666
:101AB000314600F0AAF905462846BDE8F0812DE937
:101AC000F04105460C46164600275CB132462146D9
:101AD000284600F061F82046FFF7A5FF204600F0F9
:101AE00057F807463846BDE8F08101460868704758
:101AF0007CB505460C46204600F026F806466A46A8
:101B000001A900F041F921462846DDE9003200F044
:101B1000C9F97CBD416841F00101416070474168ED
:101B200041F0020141607047416821F002014160CB
:101B30007047426802F003030B43436070474168FB
:101B400021F00101416070470146486820F0030020
:101B500070472DE9F04105460C46284600F018F87C
:101B60008046211F00F051F906462846FFF7ECFF9A
:101B7000211D471A39463046FFF7DBFF214628462C
:101B8000FFF7D7FF3046FFF741FF3046BDE8F08151
:101B9000014601F1080070472DE9F04106460C4668
:101BA000154629462046FFF7DBFE78B12946204638
:101BB000FFF7CFFF07462046FFF700FF3846FFF745
:101BC000AEFF39463046FFF7DDFE00BFBDE8F081CD
:101BD00010B54FF4407101F007020A4B18684FF638
:101BE000FF031840084B034343EA0220054B1860EB
:101BF00000BF01210420FEF795FF01218803FEF7B5
:101C000091FF10BD0CED00E00000FA052DE9F04158
:101C100004460D46E0B201F0C5FF6868FEF7B8FA69
:101C2000064631460A48006801F025FF074600F0E5
:101C300035FE80463B46324606A101F0E0F93946C2
:101C40000348006801F0F9FE0020BDE8F0810000C3
:101C500004000020414C4C4F43415445442025642E
:101C600020627974657320617420307825700A00D1
:101C700010B58060C06000230361002110E00024E3
:101C800000F1140343F82140002206E000F1740340
:101C900003EBC11343F82200521C202AF6DB491C37
:101CA0001829ECDB10BD38B504468DF800006946F4
:101CB0000320ABBE204638BD70B500F1740505EBBE
:101CC000C21555F823408C60C860E16000F17405CE
:101CD00005EBC21545F823100126964005693543EA
:101CE000056100F1140555F8225001269E40354348
:101CF00000F1140646F8225070BD000008B54FF4FC
:101D00002051194801F06CFE184908600846006827
:101D100008B900BFFEE7FFF75BFF01F0C7FE1448FC
:101D200001F02AFF8021134800F0A1F81249086051
:101D300012481349C1F888004FF400721149104845
:101D400000F01CFF0EE00C48006800F061F848B994
:101D500069460948006800F070F89DF800100848CE
:101D600000F0E0FDEFE70000880300200400002001
:101D7000853B00087C00002000000020AB18000814
:101D8000FC000020880100202DE9F04104460F46A8
:101D90009046802C06D200252046E11704EB917175
:101DA0008E1009E0204601F03DFE0546681F24FA2A
:101DB00000F080F02006AD1F3D60C8F80060BDE86F
:101DC000F0812DE9F04104460D461646802C09D3DA
:101DD000204601F027FE401F012101FA00F0471EB6
:101DE0003C4400BF324629462046FFF7CDFFBDE800
:101DF000F08101464868401C8A68904202D24868D7
:101E0000401C00E0002080B2704702465018704726
:101E10000146D1E90020904201D101207047002005
:101E2000FCE710B504462046FFF7E3FF216888422F
:101E300001D1012010BD0020FCE70246D2E90030AC
:101E4000984201D10020704702F10C001368C05C79
:101E5000087000BF1068401C9368984202D2106856
:101E6000401C00E0002080B210600120EBE7024639
:101E7000A1F10C0393601046704770B504460D46FF
:101E80002046FFF7B6FF2168884201D1002070BDCF
:101E900004F10C00616845542046FFF7AAFF60601A
:101EA0000120F4E7F0B5CD688C68E560AC6000F126
:101EB000740606EBC21656F823608E421BD100F161
:101EC000740606EBC21646F82340844213D100F193
:101ED000140656F8226001279F40BE4300F1140704
:101EE00047F822603E4656F8226026B901279740FF
:101EF0000669BE430661F0BD2DE9F04704460E4673
:101F000017463568D7F8008004F1140050F8250012
:101F10004FF0FF3101FA08F100EA0109B9F1000FB1
:101F200016D1691C4FF0FF328A40206900EA020A8C
:101F3000BAF1000F02D10020BDE8F087504601F051
:101F400066FD0546356004F1140050F8259000BF89
:101F5000484601F05CFD8046C7F8008004F174003B
:101F600000EBC51050F82800E6E70000014600200D
:101F700009E0074A52F820201AB9054A42F8201011
:101F80007047421C10B20328F3DB00BFF8E70000E3
:101F9000882B002010B504460121204600F073F87C
:101FA00010BD000010B50446226891682069FEF754
:101FB000D2F860B994F8800020F00100401C84F849
:101FC000800008480168204601F03AFC04E005481A
:101FD000416B204601F034FC0020A0810021E1810A
:101FE00010BD0000200000200246087848B1487863
:101FF00000F00F00082804D0087813681B781840F8
:1020000050B192F8800000F0010018B94878C0F390
:10201000001008B1002070474FF0FF30FBE70000D0
:1020200010B500F03BFC044624B10348816B204608
:1020300001F006FC10BD00002000002070B5044631
:10204000A189E089081A05B205E02021204601F0A7
:102050000DFB681E05B2002DF7DC217B204600F049
:102060007FF870BD10B500F019FC044614B120468D
:1020700000F05AFE10BD10B504464FF0FF31204667
:1020800000F001F810BD2DE9F04104460D46681C32
:1020900008B9012000E000200746E08908B9012DB9
:1020A00005D0E089A189884203D1681C08B9BDE840
:1020B000F081E089A189884210D1012D0ED1E089FB
:1020C000401EE081A089401EA0810021A2892069D4
:1020D00081540121204600F043F83FE038460AE0F1
:1020E000E18901442269525CE1890144491E236966
:1020F0005A54411C08B2A289E189511A8142EFDC8D
:10210000A089401EA08137B9E089401EE0810821E6
:10211000204601F0ABFA0021A28920698154E089B0
:1021200006B206E02069815D204601F09FFA701C2E
:1021300006B2A089B042F5DC2021204601F096FAD3
:10214000A189E089081A401C06B205E00821204652
:1021500001F08CFA701E06B2002EF7DC00BFA6E775
:1021600070B505460C4603E004A1284601F068FB63
:10217000201EA4F10101CCB2F6D170BD08200800E8
:1021800010B504464FF0FF31204600F059FC10BD59
:1021900010B50446204600F005F80121204601F064
:1021A000D5FA10BD70B50446A08900B970BD0021F4
:1021B000A2892069815494F8800000F0010018B3CE
:1021C000204600F09EFC204600F0CEFE0021E1817A
:1021D000A181B4F8560000B9E8E70EA1204601F04D
:1021E0002FFB00232046A26F616900F0F0FF054637
:1021F00025B12946204600F091FF04E00648816998
:10220000204601F01DFB02E02046FFF7CBFE00BF99
:10221000CCE700000D0A00002000002010B50246A7
:10222000114600200B78302B07D14B78782B02D049
:102230004B78582B01D103200EE00B78302B07D1BF
:102240004B78622B02D04B78422B01D1012003E066
:102250000B78302B00D1022006E00B782E2B03D117
:102260004B780BB1042003E011F8014B002CF4D1A2
:1022700000BF10BD0246511C00200B785C2B1AD108
:102280004B786E2B0ED004DC302B0FD0622B0FD18D
:1022900004E0722B04D0742B0AD105E0082009E079
:1022A0000D2007E00A2005E0092003E0002001E0FE
:1022B000487800BF00E0087870472DE9F04F85B0FE
:1022C00005464FF000094FF00A0A2C46CB4601267E
:1022D000002700200490804628782D2800D1B61EC3
:1022E000711C09B9012100E000214819FFF796FF90
:1022F0008146B9F1010F0FD0B9F1020F07D0B9F142
:10230000030F0DD14FF0100A4FF0020B09E04FF010
:10231000080A4FF0010B04E04FF0020AD34600E038
:1023200000BF00BF05EB0B01701C08B9012000E0E5
:1023300000200C1811E020782E2803D14FF001085E
:10234000641C0AE0207800F04DFA07FB0A0708EB4E
:1023500088004FEA4008641C00BF20780028EAD1BA
:10236000B9F1040F1AD1B8F1000F17D03046FDF7BC
:102370008CFF03904046FDF791FF01903846FDF732
:102380008DFF00900199FDF742FF02900399FDF740
:102390000CFF0490049805B0BDE8F08F07FB06F031
:1023A000F9E770B505460C462078272805D16078F6
:1023B00018B12046FFF75EFF70BD20782D2805D0AC
:1023C0002078302806DB2078392803DC2046FFF708
:1023D00074FFF1E72078242806D1607820B12146E7
:1023E000284600F02EF8E7E7207818B1204600F0E4
:1023F00003F8E1E70020DFE770B504462546002634
:102400002078222802D1601C0446054613E0287873
:102410005C2805D1681EFFF72DFFA0556D1C07E055
:102420002878222802D10020A05501E02878A05564
:102430006D1C701C86B228780028E8D1A055204673
:1024400070BD70B504460D460023691C2046A26F7E
:1024500000F0BDFE064626B13146204600F038FAAF
:1024600070BD0020FCE71FB5A2B0402112A8FDF707
:1024700060FE2398807800F00F012498401E81426E
:1024800004DD2398807800F00F0001E02498401EBE
:1024900011900020109010E01098401C259951F8E0
:1024A000200001460F902298FFF77BFF12AA109997
:1024B00042F821001098401C10902498401E10995A
:1024C0008842E9DC119810287DD2DFE800F0080E80
:1024D00017233243566B849DB8D5F8F6F5F423984C
:1024E00080681090804726B010BD129810902398F5
:1024F00080680F90DDE90F108847F4E7139810907B
:1025000012980F90239880680E90DDE90E201099A4
:102510009047E8E71498109013980F9012980E9037
:10252000239880680D90DDE90D30DDE90F129847A2
:10253000D9E71598109014980F9013980E90129850
:102540000D90239880680C90DDE90C400EA90EC90F
:10255000A047C8E7169800901598109014980F900F
:1025600013980E9012980D90239880680C90DDE9D6
:102570000C400EA90EC9A047B5E7DDE91601CDE96B
:1025800000011598109014980F9013980E901298BF
:102590000D90239880680C90DDE90C400EA90EC9BF
:1025A000A047A0E7DDE916121898CDE900120290C5
:1025B0001598109014980F9013980E9012980D90F3
:1025C0002398806800E00AE10C90DDE90C400EA938
:1025D0000EC9A04787E7DDE91623DDE91810CDE92C
:1025E0000023CDE902101598109014980F901398BD
:1025F0000E9012980D90239880680C90DDE90C40A5
:102600000EA90EC9A0476EE7DDE91723DDE9190120
:10261000CDE90123CDE9030116980090159810909B
:1026200014980F9013980E9012980D90239880682C
:102630000C90DDE90C400EA90EC9A04753E7DDE977
:102640001823DDE91A10CDE90223CDE90410DDE9F4
:102650001601CDE900011598109014980F90139869
:102660000E9012980D90239880680C90DDE90C4034
:102670000EA90EC9A04736E7DDE91A311C9A199850
:10268000CDE9043106920390DDE916121898CDE9E0
:10269000001202901598109014980F9013980E90B5
:1026A00012980D90239880680C90DDE90C400EA9DB
:1026B0000EC9A04717E76BE045E021E0FFE7DDE941
:1026C0001A23DDE91C10CDE90423CDE90610DDE96C
:1026D0001623DDE91810CDE90023CDE90210159885
:1026E000109014980F9013980E9012980D902398B4
:1026F00080680C90DDE90C400EA90EC9A047F2E6F7
:10270000DDE91C321E991B98CDE90632089105902F
:10271000DDE91723DDE91910CDE90123CDE9031027
:10272000169800901598109014980F9013980E908A
:1027300012980D90239880680C90DDE90C400EA94A
:102740000EC9A047CFE6DDE91C23DDE91E10CDE967
:102750000623CDE90810DDE91823DDE91A10CDE9DB
:102760000223CDE90410DDE91601CDE90001159839
:10277000109014980F9013980E9012980D90239823
:1027800080680C90DDE90C400EA90EC9A047AAE6AE
:10279000DDE91D23DDE91F10CDE90723CDE909108F
:1027A000DDE91923DDE91B10CDE90323CDE905108F
:1027B000DDE916121898CDE90012029015981090D4
:1027C00014980F9013980E9012980D90239880688B
:1027D0000C90DDE90C400EA90EC9A04783E64FF02E
:1027E000FF3080E60146302905DB392903DCA1F101
:1027F0003000C0B27047612905DB662903DCA1F116
:102800005700C0B2F6E7412905DB462903DCA1F1F8
:102810003700C0B2EEE70020ECE70146487800F050
:102820000F00012801DCC8687047487800F00F00ED
:10283000072801DCC868F7E7487800F00F0008288F
:1028400001DCC868F0E7C868EEE7000010B5044690
:10285000002004E03021104A1154411CC8B209285C
:10286000F8DB607800F00F00012801DC606810BD23
:10287000607800F00F00072801DC6068F7E76078F7
:1028800000F00F00082801DC6068F0E7024960688A
:1028900000F0B7FE0048EAE7942B0020002111E089
:1028A0000A4850F8210058B1084850F8210090F823
:1028B0008000C0F3400018B1044850F82100704770
:1028C000481C01B20329EBDB0020F8E7882B00202D
:1028D00070B506460C460025607800F00F00801E9B
:1028E00006281BD2DFE800F003060A0D0E10A068D0
:1028F000056814E0A068B0F9005010E0A068057801
:102900000DE000BFA5680AE0A068406818B1A268A1
:1029100003CA884700E00020054600E000BF00BF72
:10292000284670BD2DE9F04704468846B8F1000FEF
:1029300001D1BDE8F08718274FF00009B4F858001E
:1029400000F47F4018B100276FF0FF090EE0A06D82
:1029500000F47F0018B10827DFF8B49006E0A06DFE
:1029600000F07F4010B110274FF07F49A66F00257F
:102970003EE006EB0510407800F00F00092835D145
:1029800006EB05112046FFF72FFB70BB06EB051089
:10299000406800EA0900A16D884227D106EB0510C6
:1029A0004068FF21B940084008FA07F188421DD16C
:1029B00008FA07F1A06D0843A0654FF0000847B181
:1029C00006EB05104068A7F10801FF228A4010407D
:1029D00058B906EB0510806820B106EB0510816838
:1029E000204688470021A16506E0FFE7681C05B284
:1029F0007C20005BA842BCDC00BFB8F1000F05D012
:102A00000021A1654146204600F0A0FA00BF90E7F2
:102A10000000FFFF70B504460D46FFF73FFF064676
:102A200006B970BD012C03D1304600F077F905E0FE
:102A3000012C03DD3046696800F052FE00BFF0E76C
:102A400070B504460D46002D25DDB4F974107420D0
:102A5000005B401E02B2742002537020025B7220A1
:102A6000005B824202DD7020005B01E07220005BAF
:102A7000404281421DDC7020015B7220005B81427C
:102A800002DD7020005B01E07220005B404201B279
:102A9000742001530DE0002D0ADA7420005B401C05
:102AA00001B274200153002903DD0021015370BDE0
:102AB000FDE72046FFF7C2FA7420005B18B9002139
:102AC000A181E1811BE07220005B401DB4F974100C
:102AD0000844052190FBF1F201FB120104F15C00B6
:102AE00050F821603146206900F0CCFCA08100B98B
:102AF000DDE7A189E1812046216900F0A1FE00BF48
:102B0000D5E710B504460021742001537020005B06
:102B1000002810DD7222125B21690AB9052201E04A
:102B20007222125B521E04F15C0353F82200FDF77F
:102B300012FB00B910BD7222135B04F15C0252F863
:102B40002300216900F09EFC28B17220005B401C2C
:102B500081B2722001537020005B401C81B2702052
:102B60000153052901DD052101537220005B052871
:102B700002DB00217220015300BFDBE72DE9F041A9
:102B800004460D4616460020A0810021E181206008
:102B900094F8800020F00100401C84F8800025613A
:102BA000062096FBF0F0A4F8540074200153702026
:102BB00001537220015300200AE0B4F85420411C54
:102BC00002FB015204F15C0141F82020411C08B2D3
:102BD0000528F2DB0C48A0670C4801887C200153D3
:102BE0002046FFF7C3F9002309A12046A26F00F099
:102BF000EEFA07463946204600F026FB0121204622
:102C000000F0A4FDBDE8F081C43B0008043D0008CD
:102C10007978630070B504460D46A189B4F8540074
:102C2000401E81420DDB31484168204600F008FE1D
:102C30000121204600F08AFD2046216900F000FEB7
:102C400070BDE089A189884210D1A189481CA0816A
:102C5000206945540021A28920698154E089401CE3
:102C6000E0812946204600F001FD3CE0E089A18991
:102C7000884238DAA289E189511A08B20AE0E1896A
:102C80000144491E2269525CE189014423695A5476
:102C9000411E08B20028F2DCE189481CE08120696D
:102CA00045540021A089401C80B22269A0811154A2
:102CB000E089401E06B206E02069815D204600F0F2
:102CC000D5FC701C06B2A089B042F5DCA189E08970
:102CD000081A06B205E00821204600F0C7FC701E65
:102CE00006B2002EF7DC00BFAAE70000200000209B
:102CF00010B5FFF7D3FD044614B1204600F0A2F84A
:102D000010BD10B50446E089002806DD08212046E4
:102D100000F0ACFCE089401EE08110BD10B5044617
:102D2000204600F001F810BD70B50546AE6F1048A2
:102D30008168284600F084FD002413E006EB0410AF
:102D4000407800F00F0001280ADC06EB0411284649
:102D5000FFF74AF920B906EB0411284600F00AF8FB
:102D6000601C04B27C20405BA042E7DC70BD000028
:102D7000200000202DE9F04106460C462046FFF7D2
:102D800065FD07463946304600F05AFDC0F1160091
:102D900005B2002D01DD284600E00420054600BFF5
:102DA0002021304600F062FC681E00B2051EF7D1FB
:102DB000607800F00F00012805DC1F48016C3046E8
:102DC00000F03EFD25E0607800F00F00072805DCEC
:102DD0001948416C304600F033FD1AE0607800F08D
:102DE0000F00082805DC1448816C304600F028FDEF
:102DF0000FE0607800F00F00092805DC0E48C16C78
:102E0000304600F01DFD04E00B48016D304600F037
:102E100017FD0AA1304600F013FD2046FFF7FDFC28
:102E200007463946304600F029FC05A1304600F03F
:102E300007FDBDE8F08100002000002020200000F8
:102E40000D0A000070B50646B56F1348416930465B
:102E500000F0F6FC00241AE005EB0410407800F0C6
:102E60000F00082811DD05EB0410407800F00F007A
:102E700009280ADC05EB04113046FFF7B5F820B944
:102E800005EB04113046FFF775FF601C04B27C208F
:102E9000805BA042E0DC70BD2000002070B50646DB
:102EA000B56F13480169304600F0CAFC00241AE0EF
:102EB00005EB0410407800F00F00072811DD05EB4A
:102EC0000410407800F00F0008280ADC05EB04111C
:102ED0003046FFF789F820B905EB04113046FFF7BB
:102EE00049FF601C04B27C20805BA042E0DC70BD26
:102EF0002000002070B50646B56F1348C168304603
:102F000000F09EFC00241AE005EB0410407800F06D
:102F10000F00012811DD05EB0410407800F00F00D0
:102F200007280ADC05EB04113046FFF75DF820B9ED
:102F300005EB04113046FFF71DFF601C04B27C2036
:102F4000805BA042E0DC70BD2000002070B504462C
:102F50000D4694F8800020F0040084F88000294693
:102F60002046FFF757FE70BDF0B500220123002177
:102F700006E0002500F1140444F821504C1C21B255
:102F80001029F6DB0024A0F85640002133E032B9C6
:102F90000469645C202C28D00469645C2CB3046947
:102FA000645C222C04D10AB9012400E000242246EA
:102FB000012B0FD1B0F85640102C0ADA04696518BD
:102FC000B0F85660741CA0F8564000F1140444F8A0
:102FD000265000230469645C5C2C0AD14C1C0569F2
:102FE0002C5D34B14C1CA1B203E00025046965548A
:102FF00001234C1CA1B284898C42C8DCF0BD0FB403
:1030000010B5ADF5027D044624B90DF5027D10BC66
:103010005DF814FB86A8019040F2FF1102A8019B05
:10302000859AFDF7BFFF0020019002A9204600F01D
:1030300007FC00BFE9E770B5044600252BE004F16A
:10304000140050F82500007822280CD1002104F14A
:10305000140050F82500017004F1140050F82510F8
:10306000491C40F8251004F1140151F82500FDF722
:103070006BF886B204F1140050F82510701E085C3D
:10308000222806D1002104F1140050F82520701EDA
:103090001154681C85B2B4F85600A842CFDC70BD4C
:1030A00010B50446E089A189884207DAE289501CFC
:1030B000E0812069815C204600F0D8FA10BD000054
:1030C00070B504460D4604B115B94FF0FF3070BD20
:1030D00094F88000C0F340062846FDF735F8B4F8B0
:1030E0005410491E884207D90B484168204600F019
:1030F000A7FB4FF0FF30EAE72946206900F0C2F94C
:10310000A0812046FFF74EF894F8800066F3410056
:1031100084F880000020DAE72000002070B5044623
:103120000D46002694F8800020F00200801C84F8F0
:103130008000687800F00F0090B92046FFF77BFF11
:10314000B4F8560004F11401AA689047064668785E
:10315000C0F3401048BB3146204600F02BFB2EE068
:10316000687800F00F00012811D1B4F8562004F15E
:10317000140329462046FFF776F906466878C0F31F
:10318000401090B93146204600F014FB17E06878F3
:1031900000F00F00022809DB687800F00F00072814
:1031A00004DC2946204600F0F7F808E0687800F0D3
:1031B0000F00082803D12946204600F045F894F86E
:1031C000800020F0020084F88000304670BD2DE9B8
:1031D000F0470646884614461F467C20805BB16F48
:1031E000611AA0EB11101FFA80F9002528E004EB0A
:1031F0000510407800F00F00092805D004EB0511F8
:103200003046FEF7F1FE00B118E004EB0510FFF7C1
:103210001DFB824647B951464046FCF79CFF60B90A
:1032200004EB0510BDE8F0873A4651464046FCF7EE
:10323000A0FF10B904EB0510F4E700BF681C85B2CD
:103240004D45D4DB0020EDE770B504460D46256002
:10325000A86860B1A868FCF777FF40B1B4F85600E1
:10326000022806DBA169A868FCF775FF08B90120F0
:1032700000E0002014F8801F60F30001217014F8B2
:10328000800900F0010020B102480168204600F0EA
:10329000D7FA70BD200000202DE9F04106460F4608
:1032A000FFF7FCFA054615B90020BDE8F0810023C0
:1032B00031462846AA6FFFF78AFF044634B9114801
:1032C000816A284600F0BCFA0020EEE7607800F042
:1032D0000F00022804DB607800F00F0007280ADDE9
:1032E0003146284600F0ACFA0648416A284600F00C
:1032F000A7FA0020D9E73A462146284600F004F80C
:10330000D3E700002000002070B506460C461546A5
:103310006078C0F3801028B11E48016A304600F082
:103320008FFA32E0607800F00F00801E06282AD263
:10333000DFE800F003060A0D1218A068056023E01C
:1033400029B2A06801801FE0A06805701CE0294632
:10335000A06800F097F817E00E48C169304600F009
:103360006FFA11E0A068806860B1A068006828B1B9
:10337000A1688A6808682946904703E0A0688168C8
:103380002846884700E000BF00BF2146304600F0D5
:1033900003F870BD20000020FEB505460C4626A2AD
:1033A00007CA8DE8070021462846FFF791FA07462D
:1033B0002846616800F044FA22A1284600F040FA4D
:1033C000607800F00F0005280CD11FA1284600F0FE
:1033D00037FA3946284600F033FA1BA1284600F098
:1033E0002FFA21E06946384600F0E0F8C0F10B0002
:1033F000694646183146284600F022FA13A12846AD
:1034000000F01EFA002004E030210DF80010411CED
:1034100008B20B28F8DB6946384600F0F2F8694636
:10342000284600F00DFA00BF00BF0AA1284600F0B0
:1034300007FA3846FEBD00003030303030303030D2
:1034400030303000203D2000220000002C20307859
:10345000000000000D0A000030B502460B460020B7
:10346000002108E0545C5D5CAC4200D008E0441CE4
:10347000A0B24C1CA1B2545C14B15C5C002CF1D124
:1034800000BF30BD0246002003E00B5C1354431C18
:1034900098B20B5C002BF8D1135470472DE9F84F0C
:1034A0000446B4F854A04FF000080025A08938B9AC
:1034B0002046FFF733FC0121204600F047F970E079
:1034C000A08900286DDD0021A28920698154A66FA2
:1034D000002737E006EB07112046FEF785FD78BB95
:1034E00006EB0710FFF7B2F9834659462069FFF74C
:1034F000B3FFA189884223D1F5B1012D03D12AA1BF
:10350000204600F09DF906EB08112046FFF732FC3B
:1035100006EB0710FFF79AF9834606EB0810FFF752
:1035200095F959460090FFF797FF8146CA4501DD9E
:10353000484600E0504682461FFA87F8681C85B26C
:10354000781C07B27C20005BB842C3DC0DB9BDE833
:10355000F88F012D02D12046FEF770FD4DB106EB2C
:103560000810FFF773F9074639462069FFF78AFF0D
:10357000A081012D0ADD06EB08112046FFF7FAFBBA
:103580000121204600F0E2F8A4F80CA00021A28955
:1035900020698154A189E1812046216900F050F918
:1035A00000BF00BFD3E700000D0A000030B502469F
:1035B0000B241346002A00DA53420020C8720DE0A3
:1035C0000A2093FBF0F500FB15303030C5B2601EC9
:1035D000C0B204460D540A2093FBF0F3002BEFD148
:1035E000002A04DA2D25601EC0B204460D5422B90B
:1035F0003025601EC0B204460D54C4F10B0040B229
:1036000030BD30B502460B460824002018720EE08B
:1036100002F00F01092902DD01F1570001E001F17B
:103620003000C5B2601EC0B204461D541209002A03
:10363000EED1C4F1080040B230BD10B504460121FE
:103640002046FFF7FDF910BD10B5FFF727F9044636
:1036500014B12046FFF722FC10BD10B5FFF71EF98C
:10366000044614B12046FFF745FC10BD13B50446CF
:10367000012101A8D4F8882090471CBD2DE9F04114
:1036800004460F4600253E46D4F8880010B90020B5
:10369000BDE8F08102E0761C681C85B2307828B164
:1036A00030780D2802D030780A28F4D1242D0ADD94
:1036B00024213846D4F888209047032107A0D4F865
:1036C0008820904704E029463846D4F8882090475F
:1036D000242D01DD2420DBE72720D9E72E2E2E0024
:1036E0002DE9F04104460E46002331462046A26FE4
:1036F000FFF76DFD0546EDB11248C16A204600F0A6
:103700009FF82846FFF7A2F807463946204600F002
:1037100097F80DA1204600F093F82846FFF77DF8B2
:1037200007463946204600F08BF807A1204600F0F6
:1037300087F804E003488169204600F081F8BDE87D
:10374000F0810000200000200D0A000070B5044642
:103750000D4694F8800000F00100D8B11DB110A111
:10376000204600F06DF820684168204600F068F8B7
:103770000CA1204600F064F8A06808B1A06800E041
:1037800009A00146204600F05BF808A1204600F0A1
:1037900057F804E00648016B204600F051F870BD70
:1037A0000D0A00003A0000002F0000002420000055
:1037B00020000020FEB505460C4618A2D2E90010F4
:1037C0009268CDE90102009117A1284600F038F86F
:1037D00069462046FFF7EAFEC0F10B00694646182D
:1037E0003146284600F02CF812A1284600F028F8AF
:1037F000002004E030210DF80010411C08B20B2815
:10380000F8DB69462046FFF7FCFE6946284600F0D3
:1038100017F80AA1284600F013F8FEBD303030300A
:10382000303030303030300052657475726E3A206E
:10383000000000002C203078000000000D0A00007D
:103840002DE9F04104460D4600262F46D4F88800A5
:1038500010B90020BDE8F08101E0701C86B217F8B5
:10386000011B0029F9D131462846D4F88820904719
:1038700080B2EFE72DE9F04780460C46174600F08E
:1038800010F90546781B0421FEF750F80646E117AB
:1038900004EB91718910A4EB810131B104211CA0CA
:1038A000FDF770FB0020BDE8F0870C2E02D3B6F1C7
:1038B000804F08D905F1804205F10C0121A0FDF7E8
:1038C00061FB0020EFE76FF003012046FEF79DFA51
:1038D000814631464846FEF72CF94846FEF71AF96C
:1038E0004846FEF721F949464046FEF74BF8484660
:1038F000FEF764F8824600215046FEF71AF950465A
:10390000FEF71DF95046FEF70AF92046CBE7000006
:10391000746C73665F6164645F706F6F6C3A204DA6
:10392000656D6F7279206D75737420626520616CAE
:1039300069676E65642062792025752062797465F7
:10394000732E0A00746C73665F6164645F706F6FDE
:103950006C3A204D656D6F72792073697A65206DC0
:10396000757374206265206265747765656E2025C5
:103970007520616E642025752062797465732E0A46
:103980000000000010B50446E11704EB91718910A6
:10399000A4EB810129B1042104A0FDF7F3FA002072
:1039A00010BD2046FEF764F92046F9E7746C736693
:1039B0005F6372656174653A204D656D6F72792041
:1039C0006D75737420626520616C69676E65642033
:1039D000746F2025752062797465732E0A000000CB
:1039E0002DE9F04104460D462046FFF7CBFF064681
:1039F00000F059F82F1A00F056F800EB04083A4688
:103A000041463046FFF736FF3046BDE8F0810146BB
:103A1000C843401C01EA0002B2FA82F0C0F1200360
:103A2000581E7047014621B1B1FA81F0C0F1200063
:103A300000E000200246501E70472DE9F041054687
:103A40000C46B4B12E462046FDF798FF074638468F
:103A5000FDF7DCFF39463046FEF708F807463946E1
:103A60003046FDF7EDFF074639463046FDF78AFF41
:103A700000BFBDE8F0812DE9F04104460D46264621
:103A800004212846FDF72AFF074639463046FDF750
:103A90009EFF80463A4641463046FEF710F8BDE8A4
:103AA000F0810820704740F67440704710B500F070
:103AB00041F800F01DF800F001F810BD08B5002035
:103AC000009025208DF8000000208DF801008DF871
:103AD000020001208DF803006846FCF7E9FF01228F
:103AE00040F225510148FDF7AFF908BD003801400B
:103AF0001FB5002000900190029003904FF4E13038
:103B000000900020ADF80400ADF80600ADF8080004
:103B10000C20ADF80A000020ADF80C0069460448FE
:103B2000FDF7B8F901210248FDF74BF91FBD000070
:103B30000038014008B5002000904FF40070ADF847
:103B4000000018208DF8030003208DF8020069465C
:103B50000848FCF71CFF4FF48060ADF8000004201B
:103B60008DF8030003208DF8020069460148FCF738
:103B70000EFF08BD000801400149086070470000C1
:103B80000800002010B5044605480068FEF749F912
:103B900020B9214602480068FEF76FF910BD000009
:103BA0000000002010B5044621460548FDF7E3F962
:103BB00000BF40210248FDF710F90028F9D010BDE0
:103BC000003801400008000058400008604100082B
:103BD000E440000800010000AC40000899320008F1
:103BE000CC4000080009000000415B1B3B36000888
:103BF000A84000080009000000425B1B812100086A
:103C0000984000080019000000435B1BA130000829
:103C1000244100080019000000445B1B032D00082C
:103C20001C41000800090000000000099D34000844
:103C3000544000080019000000000008951F00080B
:103C40006C400008001900000000007F7720000889
:103C500088400008001900007E335B1B77200008B5
:103C600088400008001900000000000A91210008A7
:103C7000F4400008001900000000000D9121000828
:103C8000F440000800200000A0400008152A0008A9
:103C900034400008002100000C41000849360008AB
:103CA000D440000800210000FC4000086520000806
:103CB0005C40000800210000044100085B36000859
:103CC000BC4000080021000014410008F12C00084D
:103CD0002C41000800210000B44000082120000809
:103CE0007840000800210000904000080D190008ED
:103CF0003C41000800210000944000080D1C000811
:103D000054410008140000404040404040404040C2
:103D1000414141414140404040404040404040409E
:103D200040404040404040050202020202020202BE
:103D30000202020202020220202020202020202055
:103D400020020202020202029090909090901010C5
:103D50001010101010101010101010101010101063
:103D600010100202020202028888888888880808E7
:103D700008080808080808080808080808080808C3
:103D80000808020202024000073D00080D0A436FC6
:103D90006D6D616E64204C6973743A0D0A00000009
:103DA0000D0A566172204C6973743A0D0A000000C6
:103DB0000D0A55736572204C6973743A0D0A000040
:103DC0000D0A4B6579204C6973743A0D0A000000A6
:103DD000436F6D6D616E64206E6F7420466F756EFB
:103DE000640D0A000D0A5761726E696E673A2043CE
:103DF0006F6D6D616E6420697320746F6F206C6FDE
:103E00006E670D0A00000000206973206E6F742039
:103E100061207661720D0A0063616E2774207365FC
:103E2000742072656164206F6E6C79207661720D0A
:103E30000A00000063616E27742073657420706F40
:103E4000696E7465720D0A000D0A205F2020202023
:103E500020202020205F2020205F202020202020E4
:103E60002020202020202020202020205F20202013
:103E7000202020202020205F205F200D0A7C207C35
:103E8000202020205F5F5F7C207C5F7C207C5F2087
:103E90005F5F5F205F205F5F2020205F5F5F7C208F
:103EA0007C5F5F2020205F5F5F7C207C207C0D0A90
:103EB0007C207C2020202F205F205C205F5F7C20E6
:103EC0005F5F2F205F205C20275F5F7C202F205FBB
:103ED0005F7C20275F205C202F205F205C207C20DF
:103EE0007C0D0A7C207C5F5F7C20205F5F2F207C24
:103EF0005F7C207C7C20205F5F2F207C2020202086
:103F00005C5F5F205C207C207C207C20205F5F2F1A
:103F1000207C207C0D0A7C5F5F5F5F5F5C5F5F5F82
:103F20007C5C5F5F7C5C5F5F5C5F5F5F7C5F7C2075
:103F30002020207C5F5F5F2F5F7C207C5F7C5C5F4C
:103F40005F5F7C5F7C5F7C0D0A0D0A4275696C6463
:103F50003A20202020202020466562202035203273
:103F60003032352032333A35363A30370D0A56651D
:103F70007273696F6E3A2020202020332E312E324A
:103F80000D0A436F707972696768743A202020289F
:103F900063292032303230204C65747465720D0A0A
:103FA000000000000D0A70617373776F7264206502
:103FB00072726F720D0A0000566172206E6F74206B
:103FC000466F756E740D0A001B5B324B0D000000CE
:103FD000434D4420000000005641522000000000E4
:103FE0004B45592000000000636F6D6D616E6420C9
:103FF00068656C70206F6620000000000D0A506C30
:104000006561736520696E70757420706173737774
:104010006F72643A000000004E4F4E4500000000F1
:104020001B5B324A1B5B3148000000005553455270
:104030000000000073686F7720636F6D6D616E64C0
:1040400020696E666F0D0A68656C70205B636D6435
:104050005D00000074616200797863006C697374BC
:1040600020616C6C20636D64000000006261636B12
:104070007370616365000000636C65617220636F3B
:104080006E736F6C6500000064656C65746500009C
:10409000736800006D656D00646F776E000000004E
:1040A00068656C70000000007570000073657456E0
:1040B00061720000636C6561720000006C6973746A
:1040C00020616C6C207661720000000073657420C2
:1040D000766172006C69737420616C6C2075736515
:1040E0007200000064656661756C7420757365729A
:1040F00000000000656E746572000000636D6473FB
:104100000000000076617273000000007573657234
:10411000730000006B657973000000006C656674C5
:104120000000000072696768740000006C697374B5
:1041300020616C6C206B65790000000072756E2048
:10414000636F6D6D616E64206469726563746C7910
:1041500000000000616C6C6F63206D656D6F72799B
:104160000000000084410008000000207C000000E6
:10417000D80F0008004200087C000020242F000017
:10418000E80F000800000000000000000000000030
:1041900000000000010203040102030406070809ED
:1041A00002040608483E0008E43D00088C3D000873
:1041B000A03D0008B03D0008C03D0008D03D00080B
:1041C000343E0008183E0008083E0008B83F0008CA
:1041D000E83F0008FC3F0008A43F0008204000081A
:1041E000C83F0008D03F0008D83F00082C40000816
:1041F000E03F000818400008000000000000000038
:04000005080000ED02
:00000001FF
