:020000040800F2
:10000000D836002005010008D50A0008CD0A0008EE
:10001000D10A0008B1090008A70F0008000000007D
:10002000000000000000000000000000410C00087B
:10003000B509000800000000490B00082D0D00085C
:100040001F0100081F0100081F0100081F01000810
:100050001F0100081F0100081F0100081F01000800
:100060001F0100081F0100081F0100081F010008F0
:100070001F0100081F0100081F0100081F010008E0
:100080001F0100081F0100081F0100081F010008D0
:100090001F0100081F0100081F0100081F010008C0
:1000A0001F0100081F0100081F0100081F010008B0
:1000B0001F0100081F0100081F0100081F010008A0
:1000C0001F0100081F0100081F0100081F01000890
:1000D0001F010008910D00081F0100081F01000802
:1000E0001F0100081F0100081F010008DFF810D0E1
:1000F00000F05CFB00480047F9280008AFF30080DF
:10010000D83600200648804706480047FEE7FEE74D
:10011000FEE7FEE7FEE7FEE7FEE7FEE7FEE7FEE7B7
:10012000310D0008ED000008D2B201E000F8012B0B
:10013000491EFBD270470022F6E710B513460A4667
:1001400004461946FFF7F0FF204610BD30B50546BE
:100150002A460B4612F8010B13F8014B08B1A042D6
:10016000F8D01CB1002802D06D1CF1E7284630BD44
:10017000421C10F8011B0029FBD1801A704710B5F2
:10018000002200E0521C835C8C5CA34201D1002B56
:10019000F8D1D8B2E1B2401A10BD30B50546002002
:1001A000034600E05B1C934205D2EC5CC85C201A5D
:1001B00001D1002CF6D130BD70B5064600F04EFFDF
:1001C000046805460A220021304600F0C7F82C607A
:1001D00070BD80EA010210B502F00043400022D059
:1001E0004A001FD0010E01EB1261C0F35600C2F3AA
:1001F000560240F4000042F40002A0FB022000047A
:100200007F39140400D0401C50EA124001D4400051
:10021000491EC2B20C0604EBD010401C4008802AD4
:1002200002D003E0002010BD20F00100002900DA18
:100230000020184310BD30B480EA010202F00045EE
:1002400030F0004221F0004013D090B1C30DD40D26
:10025000C2F31601C0F31600E41A41F4000140F4A1
:1002600000027D34914201D3641C00E04900002C5F
:1002700002DA30BC002070474FF4000000239142A6
:1002800001D3891A034340084FEA4101F7D151B124
:10029000914202D14FF0004105E002D24FF001013E
:1002A00001E06FF0010103EBC450284430BC00F0C2
:1002B0008DB8C10F80EAE0700844CA079623002178
:1002C00000F08DB896230022114600F088B830B5B2
:1002D0000B46014600202022012409E021FA02F504
:1002E0009D4205D303FA02F5491B04FA02F528449E
:1002F000151EA2F10102F1DC30BD2DE9F05F0546CB
:10030000002092469B4688460646814640241BE0D4
:10031000284641464746224600F069FA53465A4667
:10032000C01A914110D311461846224600F050FAE7
:100330002D1A67EB01084F4622460120002100F0EC
:1003400047FA17EB00094E41201EA4F10104DFDC3F
:10035000484631462A464346BDE8F09F2DE9F0471E
:1003600091460F4680460446002614F8015B2DB1E5
:1003700000F060FA0068405DC007F6D12B2D02D076
:100380002D2D18D0641E4A463946204600F056FAF4
:1003900027B13968A14201D1C7F8008071054FF03B
:1003A00002040BD54042002803DD00F057FE046034
:1003B000A007BDE8F08746F48066E4E70028F8DA95
:1003C00000F04CFE04606FF00040F2E70029A8BF87
:1003D0007047401C490008BF20F00100704710B46E
:1003E000B0FA80FC00FA0CF050EA010404BF10BC23
:1003F000704749B1CCF1200421FA04F411FA0CF150
:1004000018BF012121430843A3EB0C01CB1D4FEA88
:1004100000614FEA102042BF002010BC704700EB83
:10042000C35010440029A4BF10BC7047401C4900B1
:1004300008BF20F0010010BC70472DE9FE4F804638
:1004400081EA0300C00F0C46009021F0004123F028
:100450000045B8EB0200A94105D24046214690462E
:100460001C460B46024623F00040104347D0270DA0
:10047000C7F30A00C3F30A510290401A01904028C2
:100480006BDAC3F3130040F4801B0098924620B14E
:100490000023D2EB030A63EB0B0B01985946C0F122
:1004A0004002504600F094F906460D465046594623
:1004B000019A00F0ACF910EB08006141002487EAD2
:1004C000115284EAE7731A4340D0009A62B3019A4A
:1004D000012A4FEA075215DC001B61EB02014FF0C5
:1004E000004202EA0752CDE90042001C41F58011AA
:1004F00032462B4600F000FA03B0BDE8F08F4046CC
:100500002146F9E7001B61EB0201001C41F5801355
:1005100000185B412018A2F5001747EB030140EAE1
:10052000D570B6196D4111E06D084FEA360645EAFF
:10053000C0754FEA0752001B61EB0201001C41F538
:10054000801149084FEA30000019514132462B46CC
:1005500003B0BDE8F04F00F0C0B9009801224000A0
:100560000023D0EB020263EBE073009821464FEAD0
:10057000E074B8EB000061EB0401E9E783F00043AD
:100580005BE781F0004158E72DE9FE4F81EA030463
:1005900004F0004421F0004100944FF0000B23F0E0
:1005A000004350EA01045ED052EA03045BD0C3F377
:1005B0000A54C1F30A552C44A4F2F3340194A0FB6D
:1005C0000254C1F3130141F48011C3F3130343F444
:1005D000801301FB024400FB034E840A970A44EA9D
:1005E000815447EA8357A4FB076802958D0A05FBEF
:1005F00007854FEA932C04FB0C542705029D4FEA14
:10060000065847EA1637B5EB08056EEB070C870E60
:10061000920E47EA811742EA8312A7FB0201B6EB6A
:100620000B0164EB00042B0D43EA0C335E1844EB22
:100630001C50DA465146E7FB0201C5F313044FEAAA
:100640000B3343EA14534FEA0432019C43EA060396
:10065000A4F10C040294009CCDE900B400F04CF924
:1006600003B0BDE8F08F00200146F9E72DE9F04D19
:1006700081EA030404F0004B21F0004514464FF0DA
:10068000000A23F0004150EA050220D054EA01029A
:100690001DD0C5F30A570246C5F31303C1F3130077
:1006A000C1F30A5640F4801543F48013A7EB060803
:1006B000101BD64608F2FD3873EB050002D308F193
:1006C000010801E092185B41B8F1000F03DA002045
:1006D0000146BDE8F08D00204FF4801106468446A7
:1006E0000EE0171B73EB050705D3121B63EB050325
:1006F00006434CEA010C49084FEA300092185B416E
:1007000050EA0107EDD152EA030012D082EA040058
:1007100083EA0501084305D0101BAB4106D2012234
:10072000002306E000224FF0004302E06FF00102D8
:1007300053101AEB06004CEB085110EB0A0041EB8A
:100740000B01BDE8F04D00F0C8B8C1F30A52C1F387
:10075000130140F2FF3341F480119A4202DA002083
:100760000146704740F233439A42A2F2334202DC20
:10077000524200F03CB800F02BB8000030B5041E27
:1007800071F1000404DB4FF00044404264EB0101CE
:10079000141E73F1000405DB1C464FF00043524267
:1007A00063EB0403994208BF904230BD064C074DED
:1007B00006E0E06840F0010394E807009847103431
:1007C000AC42F6D3FFF796FC50500008705000087A
:1007D000202A04DB203A00FA02F100207047914001
:1007E000C2F1200320FA03F3194390407047202AF6
:1007F00004DB203A21FA02F00021704721FA02F3CB
:10080000D040C2F120029140084319467047202A87
:1008100006DBCB17203A41FA02F043EAE07306E028
:1008200041FA02F3D040C2F1200291400843194638
:1008300070470000004870472C4C00082DE9F05F1D
:1008400082460078002715468B460AF10104B94616
:10085000302801D09DB113E014F8010B012778284E
:1008600003D0582801D045B10AE00DB1102D07D1B1
:100870000027102514F8010B02E0082500E00A25E6
:100880000026B0460EE005FB080005FB06F1012737
:1008900001EB10461FFA80F8B6F5803F00D3B94649
:1008A00014F8010B294600F075F80028EBDABBF1CB
:1008B000000F05D00FB1641E00E05446CBF8004095
:1008C000B9F1000F06D000F0C9FB02210160C81E7B
:1008D000BDE8F09F48EA0640FAE710B5141E73F130
:1008E000000408DA401C41F1000192185B411A43F0
:1008F00001D120F0010010BD2DE9F04D92469B463C
:1009000011B1B1FA81F202E0B0FA80F220329046E1
:10091000FFF75EFF04460F4640EA0A0041EA0B017A
:1009200053465A46084313D0114653EA010019D0E2
:10093000C8F140025046FFF75AFF05460E465046A2
:1009400059464246FFF744FF084305D0012004E022
:1009500020463946BDE8F08D0020054346EAE076A2
:100960002C4337430A986305E40AA0EB08000022F1
:10097000FD0A44EA47540A3002D500200146E9E75F
:10098000010510196941DDE9084500196941BDE813
:10099000F04DA2E73A2800D2303820F02002412A58
:1009A00001D3A2F13700884201D34FF0FF307047E6
:1009B00000BFFEE770472DE9F04102460025002602
:1009C000002000230024002791F803C00CF00F053D
:1009D00091F803C00CF0100CBCF1000F03D091F89B
:1009E00002C04CEA050591F800C0BCF1000F31D0FF
:1009F000146800202BE04FF0010C0CFA00F3B1F862
:100A000000C00CEA03069E4220D183004FF00F0C79
:100A10000CFA03F7BC4305FA03FC4CEA040491F812
:100A200003C0BCF1280F06D14FF0010C0CFA00FCFA
:100A3000C2F814C00AE091F803C0BCF1480F05D118
:100A40004FF0010C0CFA00FCC2F810C0401C082842
:100A5000D1D31460B1F800C0BCF1FF0F34DD54688D
:100A600000202EE000F1080C4FF0010808FA0CF30A
:100A7000B1F800C00CEA03069E4221D183004FF07A
:100A80000F0C0CFA03F7BC4305FA03FC4CEA040410
:100A900091F803C0BCF1280F05D100F1080C08FA49
:100AA0000CF8C2F8148091F803C0BCF1480F07D1CC
:100AB00000F1080C4FF0010808FA0CF8C2F8108099
:100AC000401C0828CED35460BDE8F08100BFFEE78B
:100AD00000BFFEE77047000070B5002100230F2221
:100AE000C47804B3154C246804F4E064C4F5E064ED
:100AF000210AC1F10403CA40447804FA03F184785E
:100B00001440214309010E4C0678A155047804F0E5
:100B10001F050124AC4005786D11AD0005F1E025FD
:100B2000C5F8004109E0047804F01F050124AC4039
:100B3000044D0678761145F8264070BD0CED00E0B6
:100B400000E400E080E100E07047000029B1064ABF
:100B500092690243044B9A6104E0034A926982431A
:100B6000014B9A61704700000010024030B500212F
:100B70000022002400232D4D6D6805F00C0121B1E9
:100B8000042905D0082923D105E0294D056022E07C
:100B9000274D05601FE0254D6D6805F47012234D4B
:100BA0006D6805F48034022505EB92421CB9214D95
:100BB000554305600BE01D4D6D6805F400351DB112
:100BC0001C4D5543056002E0194D5543056002E098
:100BD000174D056000BF00BF144D6D6805F0F001B2
:100BE0000909154D6B5C0568DD4045600F4D6D686A
:100BF00005F4E061090A104D6B5C4568DD408560D5
:100C00000A4D6D6805F46051C90A0B4D6B5C45686F
:100C1000DD40C560054D6D6805F44041890B074D09
:100C20006B5CC568B5FBF3F5056130BD0010024093
:100C300000127A0000093D000C0000201C0000207A
:100C4000704710B500F002F810BD00000CB5002090
:100C5000019000903348006840F4803031490860CA
:100C600000BF3048006800F4003000900198401C3C
:100C70000190009818B90198B0F5A06FF1D12948FA
:100C8000006800F4003010B10120009001E0002065
:100C900000900098012843D12348006840F01000DC
:100CA000214908600846006820F0070008600846EF
:100CB000006840F0020008601A484068194948601E
:100CC0000846406848600846406840F480604860D4
:100CD0000846406820F47C1048600846406840F4AC
:100CE000E81048600846006840F08070086000BF67
:100CF0000C48006800F000700028F9D009484068EE
:100D000020F00300074948600846406840F00200B0
:100D1000486000BF0348406800F00C000828F9D183
:100D20000CBD00000010024000200240704700008F
:100D300010B51348006840F00100114908600846EA
:100D40004068104908400E494860084600680E494E
:100D500008400B4908600846006820F480200860BD
:100D60000846406820F4FE0048604FF41F00886089
:100D7000FFF767FF4FF000600449086010BD0000F6
:100D8000001002400000FFF8FFFFF6FE08ED00E053
:100D900010B540F225510B4800F040F880B10948E9
:100DA00000F0F8F8C4B20848006818B120460649B7
:100DB0000968884740F22551024800F007F800BF53
:100DC00010BD0000003801400800002010B50022CE
:100DD000002340F66A14A14200D100BF0A12012488
:100DE0009440A3B2DC43048010BD21B1828942F457
:100DF0000052828104E082894DF6FF731A4082819D
:100E0000704702460020B1F5007F00D100BF138873
:100E10000B400BB1012000E00020704770B5024686
:100E2000002400230025002040F66A16B14200D1BC
:100E300000BFC1F3421501F01F03012606FA03F3B8
:100E4000012D02D19689334006E0022D02D1168A87
:100E5000334001E0968A33400C12012606FA04F46E
:100E60001688344013B10CB1012000E0002070BDA1
:100E7000F0B50346002400260025002040F66A173E
:100E8000B94200D100BF1846C1F3421401F01F0659
:100E9000012707FA06F5012C01D10C3004E0022CE1
:100EA00001D1103000E014301AB107682F430760F9
:100EB00002E00768AF430760F0BD00002DE9F0478E
:100EC00086B005460E460024A24600BFA146002774
:100ED000B08900B100BF2F462C8A4CF6FF70044049
:100EE000F08804432C82AC894EF6F3100440B0889D
:100EF00031890843718908430443AC81AC8A4FF6B9
:100F0000FF400440B0890443AC8201A8FFF72EFEE5
:100F10001F48874202D1DDF810A001E0DDF80CA0E7
:100F2000A88900F4004040B10AEBCA0000EB0A10A7
:100F300031684900B0FBF1F807E00AEBCA0000EBAA
:100F40000A1031688900B0FBF1F86420B8FBF0F0BA
:100F500004012009642101FB1089A88900F40040E4
:100F600040B1322000EBC900B0FBF1F000F0070007
:100F7000044308E0322000EB09106421B0FBF1F0DB
:100F800000F00F0004432C8106B0BDE8F08700009C
:100F90000038014001468888C0F308007047C1F35B
:100FA00008028280704700BFFEE700000FB4054BC7
:100FB00010B503A9044A029800F026F910BC5DF8A8
:100FC00014FB00007D270008A80000200FB47CB5AA
:100FD0000C0009AD01D0611E00E00021CDE9000147
:100FE000064B6A462946089800F00EF9002C02D0FC
:100FF000009A002111707CBC5DF814FB2B190008CD
:101000000FB4084B10B504A902AA039800F0FCF82D
:10101000044602A9002000F093FC204610BC5DF8B5
:1010200014FB0000411900087CB50C001D46164653
:10103000014601D0601E00E00020CDE90010064B03
:101040006A462946304600F0DFF8002C02D0009AAC
:10105000002111707CBD00002B190008004870476A
:10106000B400002002E008C8121F08C1002AFAD10B
:1010700070477047002001E001C1121F002AFBD118
:10108000704700002DE9FF5F82B00021DDE90430E8
:10109000020DDDF840B0034318D044F61050A2F220
:1010A000FF3242431514119801281FD0A5EB0B0005
:1010B000401C5FEA000A4FF000064E4FDFF83891FF
:1010C000B046504615D5CAF1000413E0119801242A
:1010D0004AA3012801D16FEA0B010298119AC0E9D5
:1010E0000031C0E9024206B0BDE8F09FCBF100003C
:1010F000DFE704460021404A491842EB0450CDE99D
:10110000001012E0E00707D032463B464046494611
:10111000FFF73AFA8046894632463B461046194662
:10112000FFF732FA06460F466410002CEAD1DDE9DB
:101130000401DDE90023BAF1000F06DAFFF724FA13
:1011400042464B46FFF720FA05E0FFF78FFA42468A
:101150004B46FFF78BFA04460E460022284BFFF75A
:101160000DFB03D84FF0FF30014607E00022254B6E
:1011700020463146FFF761F9FFF7E7FA102409E04E
:10118000002C0ADB0A220023FFF7B7F8039B30325A
:101190001A55641E50EA0102F2D1641C039AC4F18C
:1011A00011031444119A012A03D0012208430DD1DE
:1011B0000AE0084304D000204FF0110B119072E7B1
:1011C000A3EB0B056D1E0DE05B4504DD4FF0000247
:1011D00005F1010504E003DA4FF00002A5F1010575
:1011E000002AECD002981199C0E90231C0E900450B
:1011F00079E70000000014400000F03F30000000DC
:101200000000F0430000E03F2DE9FF4F95B09A4603
:10121000884606460025EEE1252877D1002427469A
:10122000F94A0121039400E0044316F8013F203BF2
:1012300001FA03F01042F7D130782A2811D06FF06C
:101240002F033078A0F13002092A16D8039A44F00F
:10125000020402EB820203EB42021044761C03906C
:10126000EFE758F8042B0392002A03DA504244F4C3
:101270000054039044F00204761C30782E2816D1D6
:1012800016F8010F44F004042A280DD06FF02F0245
:101290003078A0F13003092B09D807EB870302EB64
:1012A0004303C718761CF3E758F8047B761C3078A4
:1012B0006C280FD006DC4C2817D068280DD06A287F
:1012C00014D104E0742810D07A280FD10DE044F432
:1012D00000140AE044F4801401E044F440147278ED
:1012E000824202D104F58014761C761C3078662880
:1012F0000BD013DC582877D009DC002875D045289E
:10130000F6D04628F4D047281AD193E118E0632894
:1013100035D0642879D0652812D18BE1702873D03C
:1013200008DC6728F1D069286FD06E280DD06F28AF
:1013300006D1ACE073282CD0752874D0782853D00F
:101340005246179990476D1C54E1C4F3025002288D
:1013500009D003280DD0D8F8001004280DD00D6056
:1013600008F1040846E1D8F80010EA17C1E9005274
:10137000F6E7D8F800100D80F2E70D70F0E718F8E6
:10138000041B8DF8001000208DF80100EB460120B1
:1013900003E058F804BB4FF0FF3061074FF0000145
:1013A00002D40DE009F101018946B9420FDA814505
:1013B000F8DB1BF809100029F4D108E009F101015C
:1013C00089468142FADB1BF809100029F6D10398FF
:1013D0005346A0EB090721463846179A00F080FAD9
:1013E000284400EB090507E044E008E10DE01BF8A4
:1013F000010B524617999047B9F10109F7D25346AC
:1014000021463846179AF2E039E00A21C4F3025225
:101410004FF0000B0091022A06D058F8040BC117B8
:10142000032A09D00AE023E008F1070020F00702B0
:10143000F2E80201904605E000B2C117042A01D18A
:1014400040B2C117002906DA0A460021404261EB8A
:1014500002012D2202E0220504D52B228DF8042062
:10146000012203E0E20701D02022F7E7914657E08E
:101470000A2100E010214FF0000B00910BE0102139
:101480004FF0000B44F004040827009103E008200B
:101490004FF0000B0090C4F30252022A05D058F816
:1014A000040B0021032A08D008E008F1070020F00F
:1014B0000702F2E80201904603E080B2042A00D15C
:1014C000C0B24FF0000922072AD53278702A07D01F
:1014D000DDF800C08CF0100C5CEA0B0C05D00EE0BF
:1014E00040228DF80420012208E050EA010306D0D2
:1014F00030238DF804308DF8052002229146009BA0
:1015000083F0080353EA0B030AD150EA010201D128
:10151000620705D530228DF804204FF001097F1EA7
:101520003278582A04D039A20C920CAA02920BE00D
:101530003BA2F9E75B46009AFEF7DFFE0C9B9B5C43
:10154000029A521E0292137050EA0102F2D10298DE
:1015500004A9081A00F1200B600702D524F4803496
:1015600000E001275F4502DDA7EB0B0000E0002053
:1015700000EB0B01009003984944401A0390E003EC
:1015800006D453462146179A039800F0A9F905445A
:10159000002706E001A85246C05D179990476D1CD0
:1015A0007F1C4F45F6DBE0030CD553462146179AC6
:1015B000039800F095F9054404E03020524617994D
:1015C00090476D1C0099481E00900029F5DC08E04A
:1015D0000298029952460078491C02911799904747
:1015E0006D1CBBF10001ABF1010BF1DC5BE100F024
:1015F00065F90544761C307800287FF40DAE19B0EB
:101600002846BDE8F08F0000092801003031323350
:10161000343536373839616263646566000000002E
:101620003031323334353637383941424344454618
:1016300000000000600700D4062708F1070020F032
:101640000700F0E80223804603F0004C5FEA0C003C
:1016500001D097A009E0200501D596A005E0E0079C
:1016600001D095A001E0AFF24C001390307823F048
:10167000004365280CD006DC452809D046281DD03B
:1016800047287FD13BE0662818D067287AD136E01A
:101690000021112F01DB112000E0781CCDE90001B1
:1016A00004A90CA8FFF7EEFCDDE90D010C9A4FF040
:1016B000000B07F10109109200914EE04FF000403D
:1016C0000097CDE9011004A90CA8FFF7DBFCDDE9C8
:1016D0000D020C9B0F994FF0000B91461093009256
:1016E00011B9791C00EB0109B7EB090003D4C0F173
:1016F000FF3B07F10109A9EB0700019042E0012F30
:1017000000DA01270021112F01DD112000E0384609
:10171000CDE9000104A90CA8FFF7B4FCDDE90D0137
:101720000C9A00914FF0000BB946109221070FD48C
:10173000009A4A4503DA914601E0A9F10109B9F19D
:10174000010F05DD109AA9F10101515C3029F4D097
:10175000B84202DA10F1040F03DA0121CDE90110D9
:1017600010E0002803DC8344A9EB000102E0411CE7
:10177000494500DD8946A0EB0B00401C01904FF06D
:1017800000400290200705D40198484502DB4FF045
:10179000FF30019000208DF84B0002980DF14B07AF
:1017A000B0F1004F25D002200C902B200D90029814
:1017B00000280CDA404202902D200D9007E00A210B
:1017C0000298FEF784FD3031029007F8011D0C9954
:1017D000481E0C900029F2DC02980028EFD1791EF7
:1017E0000D980870307800F0200040F0450007F8B0
:1017F000020D11A8C01BC01D02901398007800B103
:10180000012000EB0901019801EBE071029801440D
:101810000398401A401E0390E00306D45346214625
:10182000179A039800F05CF805441398007818B1F3
:101830005246179990476D1CE00323D55346214625
:10184000179A039800F04CF805441BE0BBF1000F19
:1018500007DB0098584504DD1098179910F80B0025
:1018600001E0179930205246904701980BF1010B87
:10187000401E05F10105019004D12E205246179912
:1018800090476D1CB9F10001A9F10109DEDC05E00A
:1018900017F8010B5246179990476D1C0299481E84
:1018A00002900029F4DC53462146179A03989EE6DD
:1018B0002D0000002B000000200000002DE9F04169
:1018C000044600251E461746880404D405E0394620
:1018D0002020B0476D1C641EF9D52846BDE8F08174
:1018E0002DE9F041044600251E469046C80301D567
:1018F000302700E02027880404D505E0414638461B
:10190000B0476D1C641EF9D52846BDE8F08170B55E
:1019100006460C46002504E0705D03F021F8681CC3
:1019200085B2A542F8DB20B270BD4A68002A06D015
:101930000A68531C0B6010704868401E486070476E
:101940000A68531C0B60107070472DE9F041044683
:101950000E46002774B13146204600F023F80546B4
:10196000B5F1804F05D20C2D01D9284600E00C209E
:10197000074600BF3846BDE8F0812DE9F05F044618
:10198000894692469B460AADE0CD01F065FE804651
:10199000214602F073FABDE8F09F0246481E10404F
:1019A000101A70470246481E10444B1E9843704759
:1019B00070B504460D46284600F0FDF8001D61682C
:1019C00008446060204600F030F8204670BD70B5D5
:1019D00005460C46284600F0EEF804F11001884256
:1019E00001D3012070BD0020FCE70146A1F10800F1
:1019F00070477CB505460C46204600F0DCF80646EC
:101A00006A4601A901F09EF821462846DDE9003228
:101A100000F050FF7CBD0146087900F001007047DE
:101A20000146087900F00200704770B50446204670
:101A300000F06AF805462C60284670BD7CB5064665
:101A40000C4600200190009000256CB16A4601A967
:101A5000204601F094F80198182805DA6A4601A991
:101A6000304601F027F905462DB129463046DDE91B
:101A7000003201F0F5F828467CBD70B504462046DA
:101A8000FFF7D3FF0546284600F080F8204600F017
:101A900078F870BD70B50446204600F035F805466C
:101AA000284600F078F8204600F080F870BD70B548
:101AB00005460C46204600F027F806463046FFF75C
:101AC000AAFF40B13146284600F049F83146204689
:101AD000FFF76EFF0446204670BD70B505460C4604
:101AE0002046FFF79DFF68B1204600F035F8064616
:101AF0003146284600F033F821463046FFF758FFBC
:101B0000044600BF204670BD2DE9F0410446204642
:101B100000F051F8061F204600F071F807463146E4
:101B200001F051F805462846BDE8F0812DE9F04165
:101B300005460C46164600275CB13246214628462B
:101B400000F061F82046FFF7A5FF204600F057F8A7
:101B500007463846BDE8F0810146086870477CB505
:101B600005460C46204600F026F806466A4601A9BE
:101B700000F0E8FF21462846DDE9003201F070F868
:101B80007CBD416841F0010141607047416841F00E
:101B9000020141607047416821F0020141607047D5
:101BA000426802F003030B4343607047416821F031
:101BB0000101416070470146486820F0030070470A
:101BC0002DE9F04105460C46284600F018F88046FD
:101BD000211F00F0F8FF06462846FFF7ECFF211D05
:101BE000471A39463046FFF7DBFF21462846FFF704
:101BF000D7FF3046FFF741FF3046BDE8F081014690
:101C000001F1080070472DE9F04106460C461546E3
:101C100029462046FFF7DBFE78B129462046FFF72C
:101C2000CFFF07462046FFF700FF3846FFF7AEFF1D
:101C300039463046FFF7DDFE00BFBDE8F081000009
:101C400010B54FF4407101F007020A4B18684FF6C7
:101C5000FF031840084B034343EA0220054B18607A
:101C600000BF01210420FEF771FF01218803FEF768
:101C70006DFF10BD0CED00E00000FA052DE9F0410C
:101C800080460C466068FEF797FA054629460A48E2
:101C9000006802F0CEFD064601F0DEFC0746334642
:101CA0002A4606A102F089F831460348006802F08E
:101CB000A2FD0020BDE8F08104000020414C4C4F03
:101CC0004341544544202564206279746573206142
:101CD0007420307825700A0010B58060C060002341
:101CE0000361002110E0002400F1140343F82140B7
:101CF000002206E000F1740303EBC11343F8220055
:101D0000521C202AF6DB491C1829ECDB10BD000010
:101D100070B586B00546002D1CD126480068002805
:101D200011D140F2AB10244924A229A3CDE903101C
:101D3000CDE9013200900B462EA237A1002000F021
:101D400099F800BFFEE740F2AB121B491BA0194BEC
:101D50001B68984700240526314890F8F00010B918
:101D6000304606B070BD00F0EBFA00241BE004EB37
:101D700044112B483130084490F82000012810D13C
:101D800004EB4412264831301044411C1E222846E0
:101D9000FEF703FA28B904EB441121483130465CC0
:101DA00003E0601CC4B2052CE1DB00BF00F088FA40
:101DB0003046D6E7A4000020364B00087461672047
:101DC000213D202828766F6964202A2930290000C7
:101DD00028257329206861732061737365727420EC
:101DE0006661696C65642061742025733A256C64B2
:101DF0002E0000002E2E5C74686972645F6C69624C
:101E00005C656173796C6F676765725C7372635C44
:101E1000656C6F672E630000656C6F6700000000E3
:101E2000DC2B002010B50024114890F8F0000128A8
:101E300001D1204610BD00F05AFA04460CB12046EC
:101E4000F8E7012000F01CFA0020094981F8F300AE
:101E500081F8F40000F0C4FB052000F073FA00F0F4
:101E6000D3FA0120024981F8F0002046E2E70000A1
:101E7000DC2B00202DE9F04F8DB005460F46934630
:101E800098463846FEF774F9814600244FF0010A5F
:101E900000200B900C900790089009900A90052D57
:101EA0001CDDC1480068002811D140F20920BF495B
:101EB000BFA2C6A3CDE90310CDE9013200900B46C5
:101EC000CBA2D4A10020FFF7D5FF00BFFEE740F270
:101ED0000922B649B6A0B44B1B689847CF4890F882
:101EE000F10010B90DB0BDE8F08FCC480078A842E1
:101EF00004DB3846FFF70CFFA84200DAF2E7C749D7
:101F0000491C3846FEF722F900B9EBE718A80690FD
:101F100000F0A2F9C14890F8F50078B1C048011965
:101F2000C0A2204600F0A4FB0444BF4850F825207E
:101F3000BB480119204600F09BFB044401212846C0
:101F400000F04EFC40B1B94850F82520B4480119C2
:101F5000204600F08DFB04440221284600F040FC9E
:101F6000E8B1AF4801193A46204600F081FB04442D
:101F7000B9F10F0F0CD8C9F10F01202207A8FEF705
:101F8000D3F8A748011907AA204600F071FB0444C2
:101F9000A3480119A6A2204600F06AFB04441C21B4
:101FA000284600F01DFC002852D09D480119A1A22E
:101FB000204600F05DFB04440421284600F010FC9C
:101FC000A8B100F093F90590954801192046059AAB
:101FD00000F04EFB04441821284600F001FC30B10B
:101FE0008F48011992A2204600F042FB04440821C8
:101FF000284600F0F5FBA8B100F076F90590884876
:1020000001192046059A00F033FB044410212846AC
:1020100000F0E6FB30B18248011985A2204600F0AD
:1020200027FB04441021284600F0DAFB48B100F0F9
:102030005CF905907A4801192046059A00F018FBD2
:102040000444774801197CA2204600F011FB0444A7
:10205000E021284600F0C4FB00285CD0704801193C
:1020600076A2204600F004FB04442021284600F01C
:10207000B7FBF8B16A4801195A46204600F0F8FA51
:1020800004444021284600F0ABFB38B164480119F4
:1020900067A2204600F0ECFA04440BE080212846B9
:1020A00000F09EFB30B15E48011965A2204600F0A9
:1020B000DFFA04444021284600F092FB90B15848D2
:1020C00001194246204600F0D3FA044480212846F4
:1020D00000F086FB30B15248011959A2204600F0A9
:1020E000C7FA04448021284600F07AFB60B155A26B
:1020F00005210BA8169BFEF769FF494801190BAA99
:10210000204600F0B5FA0444454801194EA2204685
:1021100000F0AEFA0444C4F58061414A1019069BF0
:10212000179AFEF781FF064600200690A019B0F529
:10213000806F03D8002E01DB344401E04FF480644B
:10214000201D5044B0F5806F04D94FF48064241FE3
:10215000A4EB0A04314890F8200058B1002030491F
:1021600008552E4920312E48FDF7F0FF10B900F038
:10217000A7F8B7E6294890F8F50030B128480119CA
:1021800032A2204600F074FA04442548011931A215
:10219000204600F06DFA04442146214800F0AAF8D8
:1021A00000F08EF800BF9DE6A40000204E4B000812
:1021B0006C6576656C203C3D20454C4F475F4C5626
:1021C0004C5F564552424F53450000002825732965
:1021D0002068617320617373657274206661696C35
:1021E00065642061742025733A256C642E0000001C
:1021F0002E2E5C74686972645F6C69625C656173E1
:10220000796C6F676765725C7372635C656C6F672E
:102210002E630000656C6F6700000000DC2B00205F
:10222000D42C00201B5B00008C00002074000020D8
:10223000200000005B0000005D200000280000007E
:102240003A000000256C6400290000001B5B306D23
:10225000000000000A00000010B5084890F8F200E5
:1022600030B100F06DF80120044981F8F40003E07A
:102270000120024981F8F30010BD0000DC2B002092
:1022800010B504460D4880F8F24090F8F200A0B175
:102290000A4890F8F40030B9084890F8F30010B1FB
:1022A00000F04EF809E0054890F8F40028B1034822
:1022B00090F8F30008B900F044F810BDDC2B0020C2
:1022C00010B5084890F8F20030B100F03AF800205C
:1022D000044981F8F40003E00020024981F8F3008A
:1022E00010BD0000DC2B00207047704770470020B5
:1022F00070470000F8B506460C4604F1200000F0D7
:10230000EBFB054605B9F8BD3346224606A1284633
:102310000094FEF775FEE8B202F022FB284600F0BA
:1023200037FA00BFEFE700006C6F673A20252E2ACE
:10233000733B2073697A653A20257A750A0000009C
:102340007047704710B586B00446052C1CDD104858
:102350000068002811D140F225100E490EA215A3E5
:10236000CDE90310CDE9013200900B461AA223A15A
:102370000020FFF77FFD00BFFEE740F22512054970
:1023800005A0034B1B6898471E48047006B010BD9B
:10239000A40000200A4B00086C6576656C203C3D6B
:1023A00020454C4F475F4C564C5F564552424F5369
:1023B000450000002825732920686173206173732C
:1023C000657274206661696C656420617420257390
:1023D0003A256C642E0000002E2E5C7468697264CD
:1023E0005F6C69625C656173796C6F676765725C6D
:1023F0007372635C656C6F672E630000656C6F675A
:1024000000000000DC2B002010B5002400BF13E00A
:1024100004EB44120A491144481C1F21FDF78BFEAE
:10242000002104EB44120648815404EB441210448A
:1024300080F82010601CC4B2052CE9DB10BD000040
:102440000D2C002030B585B004460D46052C1CDD52
:1024500010480068002811D140F20B100E490FA25D
:1024600015A3CDE90310CDE9013200900B461BA264
:1024700023A10020FFF7FEFC00BFFEE740F20B1295
:10248000054906A0034B1B6898471F4840F8245095
:1024900005B030BDA4000020ED4A00086C657665EB
:1024A0006C203C3D20454C4F475F4C564C5F564599
:1024B00052424F534500000028257329206861735C
:1024C00020617373657274206661696C6564206154
:1024D000742025733A256C642E0000002E2E5C7447
:1024E000686972645F6C69625C656173796C6F675F
:1024F0006765725C7372635C656C6F672E63000066
:10250000656C6F6700000000B42C002010B586B029
:102510000446002C1CD0012C1AD01048006800285A
:1025200010D1E2200E490FA218A3CDE90310CDE986
:10253000013200900B461EA226A10020FFF79AFC54
:1025400000BFFEE7E222064906A0044B1B6898473D
:10255000224880F8F14006B010BD0000A400002021
:10256000D54A000828656E61626C6564203D3D2097
:1025700066616C736529207C7C2028656E61626CC5
:102580006564203D3D2074727565290028257329F6
:102590002068617320617373657274206661696C71
:1025A00065642061742025733A256C642E00000058
:1025B0002E2E5C74686972645F6C69625C6561731D
:1025C000796C6F676765725C7372635C656C6F676B
:1025D0002E630000656C6F6700000000DC2B00209C
:1025E000014981F8F5007047DC2B00200EB5012071
:1025F000FFF78CFF06A008A1D922114BCDE90021DD
:10260000029010A218A10320FFF734FC0EBD0000B9
:10261000322E322E30000000456173794C6F6767AF
:1026200065722056257320697320696E697469612B
:102630006C697A6520737563636573732E0000009F
:10264000CA4A00082E2E5C74686972645F6C696205
:102650005C656173796C6F676765725C7372635CEC
:10266000656C6F672E630000656C6F67000000008B
:10267000F0B585B006460D4614462746002D1AD102
:1026800024480068002810D12C20234923A224A329
:10269000CDE90310CDE9013200900B4629A234A107
:1026A0000020FFF7E7FB00BFFEE72C221A491BA022
:1026B000184B1B689847002C19D11648006880B940
:1026C0002D2015492CA216A3CDE90310CDE9013226
:1026D00000900B461BA226A10020FFF7CBFB00BFFA
:1026E000FEE72D220C4924A00A4B1B6898470AE0FC
:1026F0003046761CB0F5806F04D214F8010B05F853
:10270000010B00E002E020780028F1D100BFE01BBF
:1027100005B0F0BDA4000020864B0008647374006F
:102720002825732920686173206173736572742092
:102730006661696C65642061742025733A256C6458
:102740002E0000002E2E5C74686972645F6C6962F2
:102750005C656173796C6F676765725C7372635CEB
:10276000656C6F675F7574696C732E6300000000A1
:10277000656C6F67000000007372630038B5044633
:102780008DF8000069460320ABBE204638BD00002E
:1027900010B5002821D0114B0022001F196803E05A
:1027A000814203D80A4649680029F9D152B1136819
:1027B000841A9C4204D1006818441060104602E05C
:1027C000506000E0186039B102680B1A934203D1DF
:1027D0000B681A4402604968416010BDAC000020DB
:1027E00030B585B004460D46052C1CDD1348006845
:1027F000002811D140F2A720114912A218A3CDE957
:102800000310CDE9013200900B461EA226A1002044
:10281000FFF730FB00BFFEE740F2A722084909A0FE
:10282000064B1B689847224850F82400284010B1F6
:10283000012005B030BD0020FBE70000A40000200F
:102840005A4B00086C6576656C203C3D20454C4F2A
:10285000475F4C564C5F564552424F53450000006F
:102860002825732920686173206173736572742051
:102870006661696C65642061742025733A256C6417
:102880002E0000002E2E5C74686972645F6C6962B1
:102890005C656173796C6F676765725C7372635CAA
:1028A000656C6F672E630000656C6F670000000049
:1028B000B42C002070B500F1740505EBC21555F875
:1028C00023408C60C860E16000F1740505EBC2151F
:1028D00045F823100126964005693543056100F14E
:1028E000140555F8225001269E40354300F1140688
:1028F00046F8225070BD00000EB54FF420514548F7
:1029000001F04CFF444908600846006808B900BF60
:10291000FEE7FFF795F901F0A7FF404802F00AF83B
:10292000FFF780FAFF210020FFF78CFD072101202F
:10293000FFF788FD07210220FFF784FD0721032010
:10294000FFF780FDBF210420FFF77CFDBF2105209C
:10295000FFF778FDFFF74AFE31A03F21364B37A243
:10296000CDE9001039A10020FFF784FA39A04021F9
:10297000314B32A2CDE9001034A10120FFF77AFAE1
:102980003AA041212C4B2DA2CDE900102FA102200D
:10299000FFF770FA3BA04221274B28A2CDE9001097
:1029A0002AA10320FFF766FA3BA04321224B23A272
:1029B000CDE9001025A10420FFF75CFA3BA04421DB
:1029C0001D4B1EA2CDE9001020A10520FFF752FAF1
:1029D00080213C4800F029F93B4908603B483C49CC
:1029E000C1F888004FF400723A49394800F0A4FF5A
:1029F0000EE03548006800F0E9F848B902A932480D
:102A0000006800F0F8F89DF80810314800F068FE02
:102A1000EFE70000C4030020040000204149000843
:102A20005468697320697320616E206173736572E5
:102A300074206C6F67000000804900082E2E5C61D6
:102A400070705C6D61696E2E630000004E4F5F54C4
:102A5000414700005468697320697320616E2065E6
:102A600072726F72206C6F670000000054686973A7
:102A70002069732061207761726E696E67206C6FC8
:102A8000670000005468697320697320616E2069D3
:102A90006E666F206C6F67005468697320697320DD
:102AA00061206465627567206C6F670054686973A4
:102AB000206973206120766572626F7365206C6F88
:102AC00067000000B8000020000000200F19000877
:102AD00038010020C4010020F0B50B30154D20F066
:102AE00007010024144A0FE003688B420BD38B428A
:102AF00005D95E1A43184768C3E9006700E04368D8
:102B0000136002C004E0021D10680028ECD12046CA
:102B1000002802D1286808B10020F0BD064A074805
:102B20001060074A121A22F00702C0E900240120AF
:102B30002860D7E7B0000020AC000020DC30002087
:102B4000D83200202DE9F04104460F469046802CF3
:102B500006D200252046E11704EB91718E1009E0A2
:102B6000204601F03DFE0546681F24FA00F080F083
:102B70002006AD1F3D60C8F80060BDE8F0812DE97A
:102B8000F04104460D461646802C09D3204601F03C
:102B900027FE401F012101FA00F0471E3C4400BF00
:102BA000324629462046FFF7CDFFBDE8F0810146B9
:102BB0004868401C8A68904202D24868401C00E085
:102BC000002080B270470246501870470146D1E994
:102BD0000020904201D1012070470020FCE710B591
:102BE00004462046FFF7E3FF2168884201D1012017
:102BF00010BD0020FCE70246D2E90030984201D126
:102C00000020704702F10C001368C05C087000BF20
:102C10001068401C9368984202D21068401C00E083
:102C2000002080B210600120EBE70246A1F10C0306
:102C300093601046704770B504460D462046FFF776
:102C4000B6FF2168884201D1002070BD04F10C005C
:102C5000616845542046FFF7AAFF60600120F4E751
:102C6000F0B5CD688C68E560AC6000F1740606EBE9
:102C7000C21656F823608E421BD100F1740606EB93
:102C8000C21646F82340844213D100F1140656F8C8
:102C9000226001279F40BE4300F1140747F82260DD
:102CA0003E4656F8226026B9012797400669BE4382
:102CB0000661F0BD2DE9F04704460E46174635681B
:102CC000D7F8008004F1140050F825004FF0FF31D0
:102CD00001FA08F100EA0109B9F1000F16D1691CE7
:102CE0004FF0FF328A40206900EA020ABAF1000F71
:102CF00002D10020BDE8F087504601F066FD054690
:102D0000356004F1140050F8259000BF484601F0EA
:102D10005CFD8046C7F8008004F1740000EBC5102C
:102D200050F82800E6E700000146002009E0074AC5
:102D300052F820201AB9054A42F820107047421C68
:102D400010B20328F3DB00BFF8E70000C42B00201B
:102D500010B504460121204600F073F810BD0000B4
:102D600010B50446226891682069FDF708FA60B939
:102D700094F8800020F00100401C84F8800008488E
:102D80000168204601F03AFC04E00548416B20460A
:102D900001F034FC0020A0810021E18110BD000081
:102DA000200000200246087848B1487800F00F0063
:102DB000082804D0087813681B78184050B192F89E
:102DC000800000F0010018B94878C0F3001008B185
:102DD000002070474FF0FF30FBE7000010B500F017
:102DE0003BFC044624B10348816B204601F006FCFD
:102DF00010BD00002000002070B50446A189E089C4
:102E0000081A05B205E02021204601F00DFB681EDE
:102E100005B2002DF7DC217B204600F07FF870BD65
:102E200010B500F019FC044614B1204600F05AFE1B
:102E300010BD10B504464FF0FF31204600F001F8F8
:102E400010BD2DE9F04104460D46681C08B901206B
:102E500000E000200746E08908B9012D05D0E0898F
:102E6000A189884203D1681C08B9BDE8F081E089D6
:102E7000A189884210D1012D0ED1E089401EE08148
:102E8000A089401EA0810021A289206981540121CE
:102E9000204600F043F83FE038460AE0E18901446B
:102EA0002269525CE1890144491E23695A54411C3C
:102EB00008B2A289E189511A8142EFDCA089401E43
:102EC000A08137B9E089401EE0810821204601F049
:102ED000ABFA0021A28920698154E08906B206E09C
:102EE0002069815D204601F09FFA701C06B2A0891E
:102EF000B042F5DC2021204601F096FAA189E08954
:102F0000081A401C06B205E00821204601F08CFAA0
:102F1000701E06B2002EF7DC00BFA6E770B50546AE
:102F20000C4603E004A1284601F068FB201EA4F132
:102F30000101CCB2F6D170BD0820080010B50446DE
:102F40004FF0FF31204600F059FC10BD10B504468B
:102F5000204600F005F80121204601F0D5FA10BD09
:102F600070B50446A08900B970BD0021A28920690E
:102F7000815494F8800000F0010018B3204600F05E
:102F80009EFC204600F0CEFE0021E181A181B4F834
:102F9000560000B9E8E70EA1204601F02FFB002300
:102FA0002046A26F616900F0F0FF054625B1294671
:102FB000204600F091FF04E006488169204601F0B8
:102FC0001DFB02E02046FFF7CBFE00BFCCE7000070
:102FD0000D0A00002000002010B502461146002016
:102FE0000B78302B07D14B78782B02D04B78582BAD
:102FF00001D103200EE00B78302B07D14B78622BE8
:1030000002D04B78422B01D1012003E00B78302B0A
:1030100000D1022006E00B782E2B03D14B780BB1A8
:10302000042003E011F8014B002CF4D100BF10BDC7
:103030000246511C00200B785C2B1AD14B786E2B6A
:103040000ED004DC302B0FD0622B0FD104E0722B9A
:1030500004D0742B0AD105E0082009E00D2007E018
:103060000A2005E0092003E0002001E0487800BFC5
:1030700000E0087870472DE9F04F85B005464FF025
:1030800000094FF00A0A2C46CB46012600270020F3
:103090000490804628782D2800D1B61E711C09B9ED
:1030A000012100E000214819FFF796FF8146B9F1A0
:1030B000010F0FD0B9F1020F07D0B9F1030F0DD1F5
:1030C0004FF0100A4FF0020B09E04FF0080A4FF0E2
:1030D000010B04E04FF0020AD34600E000BF00BF3E
:1030E00005EB0B01701C08B9012000E000200C1852
:1030F00011E020782E2803D14FF00108641C0AE06B
:10310000207800F04DFA07FB0A0708EB88004FEA29
:103110004008641C00BF20780028EAD1B9F1040FF0
:103120001AD1B8F1000F17D03046FDF7C2F803905E
:103130004046FDF7C7F801903846FDF7C3F8009008
:103140000199FDF778F802900399FDF742F8049091
:10315000049805B0BDE8F08F07FB06F0F9E770B5FD
:1031600005460C462078272805D1607818B12046FE
:10317000FFF75EFF70BD20782D2805D0207830281D
:1031800006DB2078392803DC2046FFF774FFF1E7DF
:103190002078242806D1607820B12146284600F006
:1031A0002EF8E7E7207818B1204600F003F8E1E7B1
:1031B0000020DFE770B50446254600262078222847
:1031C00002D1601C0446054613E028785C2805D12E
:1031D000681EFFF72DFFA0556D1C07E028782228F8
:1031E00002D10020A05501E02878A0556D1C701C6C
:1031F00086B228780028E8D1A055204670BD70B569
:1032000004460D460023691C2046A26F00F0BDFE57
:10321000064626B13146204600F038FA70BD00203F
:10322000FCE71FB5A2B0402112A8FCF784FF239849
:10323000807800F00F012498401E814204DD23981D
:10324000807800F00F0001E02498401E11900020CB
:10325000109010E01098401C259951F8200001466C
:103260000F902298FFF77BFF12AA109942F82100D5
:103270001098401C10902498401E10998842E9DC58
:10328000119810287DD2DFE800F0080E1723324392
:10329000566B849DB8D5F8F6F5F4239880681090A5
:1032A000804726B010BD12981090239880680F9028
:1032B000DDE90F108847F4E71398109012980F90EB
:1032C000239880680E90DDE90E2010999047E8E77A
:1032D0001498109013980F9012980E90239880686D
:1032E0000D90DDE90D30DDE90F129847D9E715980B
:1032F000109014980F9013980E9012980D90239898
:1033000080680C90DDE90C400EA90EC9A047C8E703
:10331000169800901598109014980F9013980E908E
:1033200012980D90239880680C90DDE90C400EA94E
:103330000EC9A047B5E7DDE91601CDE900011598F2
:10334000109014980F9013980E9012980D90239847
:1033500080680C90DDE90C400EA90EC9A047A0E7DB
:10336000DDE916121898CDE9001202901598109018
:1033700014980F9013980E9012980D9023988068CF
:1033800000E00AE10C90DDE90C400EA90EC9A0474F
:1033900087E7DDE91623DDE91810CDE90023CDE943
:1033A00002101598109014980F9013980E90129880
:1033B0000D90239880680C90DDE90C400EA90EC991
:1033C000A0476EE7DDE91723DDE91901CDE9012307
:1033D000CDE90301169800901598109014980F905D
:1033E00013980E9012980D90239880680C90DDE948
:1033F0000C400EA90EC9A04753E7DDE91823DDE90B
:103400001A10CDE90223CDE90410DDE91601CDE95A
:1034100000011598109014980F9013980E90129820
:103420000D90239880680C90DDE90C400EA90EC920
:10343000A04736E7DDE91A311C9A1998CDE9043125
:1034400006920390DDE916121898CDE90012029059
:103450001598109014980F9013980E9012980D9044
:10346000239880680C90DDE90C400EA90EC9A04796
:1034700017E76BE045E021E0FFE7DDE91A23DDE92E
:103480001C10CDE90423CDE90610DDE91623DDE9A2
:103490001810CDE90023CDE902101598109014986A
:1034A0000F9013980E9012980D90239880680C90AE
:1034B000DDE90C400EA90EC9A047F2E6DDE91C3299
:1034C0001E991B98CDE9063208910590DDE9172376
:1034D000DDE91910CDE90123CDE90310169800901C
:1034E0001598109014980F9013980E9012980D90B4
:1034F000239880680C90DDE90C400EA90EC9A04706
:10350000CFE6DDE91C23DDE91E10CDE90623CDE978
:103510000810DDE91823DDE91A10CDE90223CDE911
:103520000410DDE91601CDE90001159810901498FA
:103530000F9013980E9012980D90239880680C901D
:10354000DDE90C400EA90EC9A047AAE6DDE91D235E
:10355000DDE91F10CDE90723CDE90910DDE91923C5
:10356000DDE91B10CDE90323CDE90510DDE91612D5
:103570001898CDE9001202901598109014980F90A9
:1035800013980E9012980D90239880680C90DDE9A6
:103590000C400EA90EC9A04783E64FF0FF3080E62D
:1035A0000146302905DB392903DCA1F13000C0B226
:1035B0007047612905DB662903DCA1F15700C0B221
:1035C000F6E7412905DB462903DCA1F13700C0B24B
:1035D000EEE70020ECE70146487800F00F000128F4
:1035E00001DCC8687047487800F00F00072801DC4C
:1035F000C868F7E7487800F00F00082801DCC868C1
:10360000F0E7C868EEE7000010B50446002004E0CB
:103610003021104A1154411CC8B20928F8DB6078E7
:1036200000F00F00012801DC606810BD607800F038
:103630000F00072801DC6068F7E7607800F00F00F2
:10364000082801DC6068F0E70249606800F0B7FE16
:103650000048EAE7D02B0020002111E00A4850F88A
:10366000210058B1084850F8210090F88000C0F3BC
:10367000400018B1044850F821007047481C01B2BE
:103680000329EBDB0020F8E7C42B002070B50646C9
:103690000C460025607800F00F00801E06281BD223
:1036A000DFE800F003060A0D0E10A068056814E0BC
:1036B000A068B0F9005010E0A06805780DE000BFE8
:1036C000A5680AE0A068406818B1A26803CA8847E4
:1036D00000E00020054600E000BF00BF284670BDA6
:1036E0002DE9F04704468846B8F1000F01D1BDE846
:1036F000F08718274FF00009B4F8580000F47F4015
:1037000018B100276FF0FF090EE0A06D00F47F00F4
:1037100018B10827DFF8B49006E0A06D00F07F40F4
:1037200010B110274FF07F49A66F00253EE006EB51
:103730000510407800F00F00092835D106EB05117F
:103740002046FFF72FFB70BB06EB0510406800EA30
:103750000900A16D884227D106EB05104068FF21C2
:10376000B940084008FA07F188421DD108FA07F16C
:10377000A06D0843A0654FF0000847B106EB0510A7
:103780004068A7F10801FF228A40104058B906EBB3
:103790000510806820B106EB051081682046884737
:1037A0000021A16506E0FFE7681C05B27C20005BF4
:1037B000A842BCDC00BFB8F1000F05D00021A16514
:1037C0004146204600F0A0FA00BF90E70000FFFF4E
:1037D00070B504460D46FFF73FFF064606B970BDBB
:1037E000012C03D1304600F077F905E0012C03DD10
:1037F0003046696800F052FE00BFF0E770B504463D
:103800000D46002D25DDB4F974107420005B401EB8
:1038100002B2742002537020025B7220005B82426D
:1038200002DD7020005B01E07220005B40428142BB
:103830001DDC7020015B7220005B814202DD702084
:10384000005B01E07220005B404201B27420015332
:103850000DE0002D0ADA7420005B401C01B27420D8
:103860000153002903DD0021015370BDFDE720460F
:10387000FFF7C2FA7420005B18B90021A181E18131
:103880001BE07220005B401DB4F974100844052150
:1038900090FBF1F201FB120104F15C0050F8216091
:1038A0003146206900F0CCFCA08100B9DDE7A18998
:1038B000E1812046216900F0A1FE00BFD5E710B5E7
:1038C00004460021742001537020005B002810DDA5
:1038D0007222125B21690AB9052201E07222125B91
:1038E000521E04F15C0353F82200FCF748FC00B9B7
:1038F00010BD7222135B04F15C0252F823002169AF
:1039000000F09EFC28B17220005B401C81B2722046
:1039100001537020005B401C81B2702001530529C7
:1039200001DD052101537220005B052802DB002127
:103930007220015300BFDBE72DE9F04104460D463C
:1039400016460020A0810021E181206094F88000CB
:1039500020F00100401C84F880002561062096FBC1
:10396000F0F0A4F854007420015370200153722029
:10397000015300200AE0B4F85420411C02FB01521C
:1039800004F15C0141F82020411C08B20528F2DB5B
:103990000C48A0670C4801887C2001532046FFF7A3
:1039A000C3F9002309A12046A26F00F0EEFA0746F2
:1039B0003946204600F026FB0121204600F0A4FDF8
:1039C000BDE8F08188490008C84A0008797863009A
:1039D00070B504460D46A189B4F85400401E8142DA
:1039E0000DDB31484168204600F008FE01212046E9
:1039F00000F08AFD2046216900F000FE70BDE089DC
:103A0000A189884210D1A189481CA0812069455410
:103A10000021A28920698154E089401CE081294667
:103A2000204600F001FD3CE0E089A189884238DAB7
:103A3000A289E189511A08B20AE0E1890144491ECC
:103A40002269525CE189014423695A54411E08B23B
:103A50000028F2DCE189481CE081206945540021FE
:103A6000A089401C80B22269A0811154E089401EC7
:103A700006B206E02069815D204600F0D5FC701C8E
:103A800006B2A089B042F5DCA189E089081A06B225
:103A900005E00821204600F0C7FC701E06B2002E8B
:103AA000F7DC00BFAAE700002000002010B5FFF7F8
:103AB000D3FD044614B1204600F0A2F810BD10B5A5
:103AC0000446E089002806DD0821204600F0ACFC11
:103AD000E089401EE08110BD10B50446204600F08C
:103AE00001F810BD70B50546AE6F104881682846D4
:103AF00000F084FD002413E006EB0410407800F091
:103B00000F0001280ADC06EB04112846FFF74AF9EA
:103B100020B906EB0411284600F00AF8601C04B234
:103B20007C20405BA042E7DC70BD0000200000204C
:103B30002DE9F04106460C462046FFF765FD074695
:103B40003946304600F05AFDC0F1160005B2002D8E
:103B500001DD284600E00420054600BF2021304654
:103B600000F062FC681E00B2051EF7D1607800F01C
:103B70000F00012805DC1F48016C304600F03EFDB7
:103B800025E0607800F00F00072805DC1948416C3B
:103B9000304600F033FD1AE0607800F00F0008288E
:103BA00005DC1448816C304600F028FD0FE0607899
:103BB00000F00F00092805DC0E48C16C304600F00B
:103BC0001DFD04E00B48016D304600F017FD0AA111
:103BD000304600F013FD2046FFF7FDFC074639464E
:103BE000304600F029FC05A1304600F007FDBDE895
:103BF000F081000020000020202000000D0A0000BD
:103C000070B50646B56F13484169304600F0F6FCC2
:103C100000241AE005EB0410407800F00F0008289B
:103C200011DD05EB0410407800F00F0009280ADCD4
:103C300005EB04113046FFF7B5F820B905EB041188
:103C40003046FFF775FF601C04B27C20805BA04209
:103C5000E0DC70BD2000002070B50646B56F13484B
:103C60000169304600F0CAFC00241AE005EB04109C
:103C7000407800F00F00072811DD05EB04104078B4
:103C800000F00F0008280ADC05EB04113046FFF7AE
:103C900089F820B905EB04113046FFF749FF601C95
:103CA00004B27C20805BA042E0DC70BD20000020DC
:103CB00070B50646B56F1348C168304600F09EFCEB
:103CC00000241AE005EB0410407800F00F000128F2
:103CD00011DD05EB0410407800F00F0007280ADC26
:103CE00005EB04113046FFF75DF820B905EB041130
:103CF0003046FFF71DFF601C04B27C20805BA042B1
:103D0000E0DC70BD2000002070B504460D4694F83C
:103D1000800020F0040084F8800029462046FFF748
:103D200057FE70BDF0B500220123002106E00025FA
:103D300000F1140444F821504C1C21B21029F6DB88
:103D40000024A0F85640002133E032B90469645CD5
:103D5000202C28D00469645C2CB30469645C222C98
:103D600004D10AB9012400E000242246012B0FD11E
:103D7000B0F85640102C0ADA04696518B0F856609D
:103D8000741CA0F8564000F1140444F82650002397
:103D90000469645C5C2C0AD14C1C05692C5D34B14F
:103DA0004C1CA1B203E000250469655401234C1C9E
:103DB000A1B284898C42C8DCF0BD0FB410B5ADF55A
:103DC000027D044624B90DF5027D10BC5DF814FB9C
:103DD00086A8019040F2FF1102A8019B859AFDF789
:103DE00023F90020019002A9204600F007FC00BF43
:103DF000E9E770B5044600252BE004F1140050F803
:103E00002500007822280CD1002104F1140050F87C
:103E10002500017004F1140050F82510491C40F8E9
:103E2000251004F1140151F82500FCF7A1F986B220
:103E300004F1140050F82510701E085C222806D1E9
:103E4000002104F1140050F82520701E1154681C44
:103E500085B2B4F85600A842CFDC70BD10B5044658
:103E6000E089A189884207DAE289501CE081206953
:103E7000815C204600F0D8FA10BD000070B5044601
:103E80000D4604B115B94FF0FF3070BD94F88000B5
:103E9000C0F340062846FCF76BF9B4F85410491EED
:103EA000884207D90B484168204600F0A7FB4FF035
:103EB000FF30EAE72946206900F0C2F9A0812046D8
:103EC000FFF74EF894F8800066F3410084F8800014
:103ED0000020DAE72000002070B504460D460026D9
:103EE00094F8800020F00200801C84F8800068783C
:103EF00000F00F0090B92046FFF77BFFB4F85600A2
:103F000004F11401AA68904706466878C0F340108F
:103F100048BB3146204600F02BFB2EE0687800F0CD
:103F20000F00012811D1B4F8562004F114032946DA
:103F30002046FFF776F906466878C0F3401090B93E
:103F40003146204600F014FB17E0687800F00F00BF
:103F5000022809DB687800F00F00072804DC2946F6
:103F6000204600F0F7F808E0687800F00F00082815
:103F700003D12946204600F045F894F8800020F04F
:103F8000020084F88000304670BD2DE9F0470646F7
:103F9000884614461F467C20805BB16F611AA0EBF7
:103FA00011101FFA80F9002528E004EB0510407875
:103FB00000F00F00092805D004EB05113046FEF78C
:103FC000F1FE00B118E004EB0510FFF71DFB82467F
:103FD00047B951464046FCF7D2F860B904EB0510EA
:103FE000BDE8F0873A4651464046FCF7D6F810B98E
:103FF00004EB0510F4E700BF681C85B24D45D4DB27
:104000000020EDE770B504460D462560A86860B154
:10401000A868FCF7ADF840B1B4F85600022806DBFA
:10402000A169A868FCF7ABF808B9012000E00020FE
:1040300014F8801F60F30001217014F8800900F06B
:10404000010020B102480168204600F0D7FA70BD97
:10405000200000202DE9F04106460F46FFF7FCFA4C
:10406000054615B90020BDE8F081002331462846F9
:10407000AA6FFFF78AFF044634B91148816A2846BF
:1040800000F0BCFA0020EEE7607800F00F00022894
:1040900004DB607800F00F0007280ADD314628466F
:1040A00000F0ACFA0648416A284600F0A7FA002062
:1040B000D9E73A462146284600F004F8D3E7000045
:1040C0002000002070B506460C4615466078C0F307
:1040D000801028B11E48016A304600F08FFA32E0A5
:1040E000607800F00F00801E06282AD2DFE800F07A
:1040F00003060A0D1218A068056023E029B2A06823
:1041000001801FE0A06805701CE02946A06800F04F
:1041100097F817E00E48C169304600F06FFA11E0D9
:10412000A068806860B1A068006828B1A1688A684A
:1041300008682946904703E0A068816828468847B8
:1041400000E000BF00BF2146304600F003F870BD1C
:1041500020000020FEB505460C4626A207CA8DE8C1
:10416000070021462846FFF791FA0746284661686E
:1041700000F044FA22A1284600F040FA607800F0EE
:104180000F0005280CD11FA1284600F037FA394648
:10419000284600F033FA1BA1284600F02FFA21E050
:1041A0006946384600F0E0F8C0F10B006946461851
:1041B0003146284600F022FA13A1284600F01EFAE4
:1041C000002004E030210DF80010411C08B20B283B
:1041D000F8DB6946384600F0F2F86946284600F0F8
:1041E0000DFA00BF00BF0AA1284600F007FA3846C2
:1041F000FEBD0000303030303030303030303000F4
:10420000203D2000220000002C203078000000001B
:104210000D0A000030B502460B460020002108E0E0
:10422000545C5D5CAC4200D008E0441CA0B24C1C65
:10423000A1B2545C14B15C5C002CF1D100BF30BD64
:104240000246002003E00B5C1354431C98B20B5C45
:10425000002BF8D1135470472DE9F84F0446B4F8F9
:1042600054A04FF000080025A08938B92046FFF778
:1042700033FC0121204600F047F970E0A0890028B6
:104280006DDD0021A28920698154A66F002737E0E7
:1042900006EB07112046FEF785FD78BB06EB0710FD
:1042A000FFF7B2F9834659462069FFF7B3FFA189AA
:1042B000884223D1F5B1012D03D12AA1204600F077
:1042C0009DF906EB08112046FFF732FC06EB0710BC
:1042D000FFF79AF9834606EB0810FFF795F9594660
:1042E0000090FFF797FF8146CA4501DD484600E090
:1042F000504682461FFA87F8681C85B2781C07B2C0
:104300007C20005BB842C3DC0DB9BDE8F88F012DFD
:1043100002D12046FEF770FD4DB106EB0810FFF705
:1043200073F9074639462069FFF78AFFA081012DFE
:104330000ADD06EB08112046FFF7FAFB01212046B3
:1043400000F0E2F8A4F80CA00021A28920698154B1
:10435000A189E1812046216900F050F900BF00BF2A
:10436000D3E700000D0A000030B502460B241346C7
:10437000002A00DA53420020C8720DE00A2093FBA5
:10438000F0F500FB15303030C5B2601EC0B20446F7
:104390000D540A2093FBF0F3002BEFD1002A04DA2E
:1043A0002D25601EC0B204460D5422B93025601E72
:1043B000C0B204460D54C4F10B0040B230BD30B55C
:1043C00002460B460824002018720EE002F00F018E
:1043D000092902DD01F1570001E001F13000C5B209
:1043E000601EC0B204461D541209002AEED1C4F169
:1043F000080040B230BD10B5044601212046FFF749
:10440000FDF910BD10B5FFF727F9044614B1204699
:10441000FFF722FC10BD10B5FFF71EF9044614B1DA
:104420002046FFF745FC10BD13B50446012101A845
:10443000D4F8882090471CBD2DE9F04104460F4672
:1044400000253E46D4F8880010B90020BDE8F08170
:1044500002E0761C681C85B2307828B130780D28CF
:1044600002D030780A28F4D1242D0ADD24213846E0
:10447000D4F888209047032107A0D4F888209047DB
:1044800004E029463846D4F888209047242D01DDE1
:104490002420DBE72720D9E72E2E2E002DE9F0413E
:1044A00004460E46002331462046A26FFFF76DFDFD
:1044B0000546EDB11248C16A204600F09FF8284633
:1044C000FFF7A2F807463946204600F097F80DA1FD
:1044D000204600F093F82846FFF77DF80746394656
:1044E000204600F08BF807A1204600F087F804E092
:1044F00003488169204600F081F8BDE8F0810000A2
:10450000200000200D0A000070B504460D4694F806
:10451000800000F00100D8B11DB110A1204600F0CC
:104520006DF820684168204600F068F80CA120462C
:1045300000F064F8A06808B1A06800E009A0014696
:10454000204600F05BF808A1204600F057F804E090
:104550000648016B204600F051F870BD0D0A0000BE
:104560003A0000002F00000024200000200000205E
:10457000FEB505460C4618A2D2E900109268CDE9B6
:104580000102009117A1284600F038F8694620463C
:10459000FFF7EAFEC0F10B0069464618314628468F
:1045A00000F02CF812A1284600F028F8002004E0C2
:1045B00030210DF80010411C08B20B28F8DB6946C9
:1045C0002046FFF7FCFE6946284600F017F80AA1CE
:1045D000284600F013F8FEBD303030303030303037
:1045E0003030300052657475726E3A200000000061
:1045F0002C203078000000000D0A00002DE9F04169
:1046000004460D4600262F46D4F8880010B9002035
:10461000BDE8F08101E0701C86B217F8011B00298B
:10462000F9D131462846D4F88820904780B2EFE788
:104630002DE9F04780460C46174600F010F9054674
:10464000781B0421FDF7A9F90646E11704EB9171E7
:104650008910A4EB810131B104211CA0FCF7A6FC58
:104660000020BDE8F0870C2E02D3B6F1804F08D9A8
:1046700005F1804205F10C0121A0FCF797FC002018
:10468000EFE76FF003012046FEF79DFA81463146C1
:104690004846FDF785FA4846FDF773FA4846FDF7A8
:1046A0007AFA49464046FDF7A4F94846FDF7BDF9B8
:1046B000824600215046FDF773FA5046FDF776FA20
:1046C0005046FDF763FA2046CBE70000746C736632
:1046D0005F6164645F706F6F6C3A204D656D6F72DF
:1046E00079206D75737420626520616C69676E65F1
:1046F000642062792025752062797465732E0A0022
:10470000746C73665F6164645F706F6F6C3A204DA8
:10471000656D6F72792073697A65206D7573742089
:104720006265206265747765656E20257520616E0F
:10473000642025752062797465732E0A00000000DC
:1047400010B50446E11704EB91718910A4EB8101C7
:1047500029B1042104A0FCF729FC002010BD20464B
:10476000FDF7BAFA2046F9E7746C73665F63726509
:104770006174653A204D656D6F7279206D75737443
:1047800020626520616C69676E656420746F202506
:10479000752062797465732E0A0000002DE9F041DE
:1047A00004460D462046FFF7CBFF064600F059F8B9
:1047B0002F1A00F056F800EB04083A4641463046FE
:1047C000FFF736FF3046BDE8F0810146C843401C84
:1047D00001EA0002B2FA82F0C0F12003581E7047CD
:1047E000014621B1B1FA81F0C0F1200000E00020C3
:1047F0000246501E70472DE9F04105460C46B4B103
:104800002E462046FDF7F1F807463846FDF735F904
:1048100039463046FDF761F9074639463046FDF71F
:1048200046F9074639463046FDF7E3F800BFBDE8D4
:10483000F0812DE9F04104460D4626460421284624
:10484000FDF783F8074639463046FDF7F7F880460E
:104850003A4641463046FDF769F9BDE8F081082047
:10486000704740F67440704710B500F041F800F012
:104870001DF800F001F810BD08B5002000902520BB
:104880008DF8000000208DF801008DF80200012055
:104890008DF803006846FCF71FF9012240F225510C
:1048A0000148FCF7E5FA08BD003801401FB50020BB
:1048B00000900190029003904FF4E13000900020AE
:1048C000ADF80400ADF80600ADF808000C20ADF816
:1048D0000A000020ADF80C0069460448FCF7EEFA27
:1048E00001210248FCF781FA1FBD00000038014099
:1048F00008B5002000904FF40070ADF800001820BB
:104900008DF8030003208DF8020069460848FCF783
:1049100052F84FF48060ADF8000004208DF80300D9
:1049200003208DF8020069460148FCF744F808BDF1
:10493000000801400149086070470000080000209D
:1049400010B5044605480068FEF749F920B921462C
:1049500002480068FEF76FF910BD0000000000205B
:1049600010B5044621460548FCF719FB00BF40215D
:104970000248FCF746FA0028F9D010BD0038014083
:104980006D61696E0000000000080000FC4E000828
:1049900004500008884F000800010000504F000834
:1049A00055400008704F00080009000000415B1BE3
:1049B000F74300084C4F00080009000000425B1B51
:1049C0003D2F00083C4F00080019000000435B1B0E
:1049D0005D3E0008C84F00080019000000445B1B42
:1049E000BF3A0008C04F000800090000000000099D
:1049F00059420008F84E00080019000000000008A5
:104A0000512D0008104F0008001900000000007F21
:104A1000332E00082C4F0008001900007E335B1B6A
:104A2000332E00082C4F0008001900000000000A77
:104A30004D2F0008984F0008001900000000000DDD
:104A40004D2F0008984F000800200000444F000838
:104A5000D1370008D84E000800210000B04F0008F0
:104A600005440008784F000800210000A04F00080E
:104A7000212E0008004F000800210000A84F000868
:104A800017440008604F000800210000B84F0008DC
:104A9000AD3A0008D04F000800210000584F000830
:104AA000DD2D00081C4F000800210000344F0008D5
:104AB0007B190008E04F000800210000384F000873
:104AC0007D1C0008F84F00081400656C6F675F7369
:104AD0007461727400656C6F675F7365745F6F7586
:104AE000747075745F656E61626C656400656C6F8F
:104AF000675F7365745F666D7400656C6F675F7385
:104B000065745F66696C74657200656C6F675F736E
:104B100065745F66696C7465725F6C766C00656C59
:104B20006F675F7365745F66696C7465725F7461EB
:104B3000675F6C766C00656C6F675F6765745F6656
:104B4000696C7465725F7461675F6C766C00656C2C
:104B50006F675F6F7574707574006765745F666DFD
:104B6000745F656E61626C656400656C6F675F663B
:104B7000696E645F6C766C00656C6F675F66696E0A
:104B8000645F74616700656C6F675F7374726370F4
:104B90007900656C6F675F6370796C6E00656C6F30
:104BA000675F6D656D637079000040404040404034
:104BB00040404041414141414040404040404040F0
:104BC0004040404040404040404005020202020256
:104BD0000202020202020202020220202020202001
:104BE0002020202002020202020202909090909067
:104BF0009010101010101010101010101010101035
:104C000010101010100202020202028888888888A0
:104C10008808080808080808080808080808080894
:104C2000080808080802020202400000AA4B000817
:104C30000D0A436F6D6D616E64204C6973743A0D9B
:104C40000A0000000D0A566172204C6973743A0D17
:104C50000A0000000D0A55736572204C6973743A9E
:104C60000D0A00000D0A4B6579204C6973743A0DEA
:104C70000A000000436F6D6D616E64206E6F7420DA
:104C8000466F756E640D0A000D0A5761726E696E8B
:104C9000673A20436F6D6D616E6420697320746F95
:104CA0006F206C6F6E670D0A000000002069732092
:104CB0006E6F742061207661720D0A0063616E2749
:104CC00074207365742072656164206F6E6C792046
:104CD0007661720D0A00000063616E2774207365AF
:104CE0007420706F696E7465720D0A000D0A205F82
:104CF0002020202020202020205F2020205F202036
:104D000020202020202020202020202020202020A3
:104D10005F202020202020202020205F205F200DE9
:104D20000A7C207C202020205F5F5F7C207C5F7CD1
:104D3000207C5F205F5F5F205F205F5F2020205F1F
:104D40005F5F7C207C5F5F2020205F5F5F7C207C3A
:104D5000207C0D0A7C207C2020202F205F205C20DE
:104D60005F5F7C205F5F2F205F205C20275F5F7C80
:104D7000202F205F5F7C20275F205C202F205F207A
:104D80005C207C207C0D0A7C207C5F5F7C20205F87
:104D90005F2F207C5F7C207C7C20205F5F2F207C2D
:104DA000202020205C5F5F205C207C207C207C20F9
:104DB000205F5F2F207C207C0D0A7C5F5F5F5F5F40
:104DC0005C5F5F5F7C5C5F5F7C5C5F5F5C5F5F5FC5
:104DD0007C5F7C202020207C5F5F5F2F5F7C207CBD
:104DE0005F7C5C5F5F5F7C5F7C5F7C0D0A0D0A42CD
:104DF00075696C643A2020202020202046656220BE
:104E0000313020323032352031363A33323A34358F
:104E10000D0A56657273696F6E3A20202020203388
:104E20002E312E320D0A436F707972696768743AB9
:104E30002020202863292032303230204C657474C1
:104E400065720D0A000000000D0A70617373776FC0
:104E50007264206572726F720D0A000056617220D2
:104E60006E6F7420466F756E740D0A001B5B324BBB
:104E70000D000000434D4420000000005641522028
:104E8000000000004B45592000000000636F6D6D6D
:104E9000616E642068656C70206F66200000000001
:104EA0000D0A506C6561736520696E7075742070B1
:104EB000617373776F72643A000000004E4F4E4585
:104EC000000000001B5B324A1B5B31480000000001
:104ED000555345520000000073686F7720636F6D73
:104EE0006D616E6420696E666F0D0A68656C702076
:104EF0005B636D645D00000074616200797863003B
:104F00006C69737420616C6C20636D640000000038
:104F10006261636B7370616365000000636C65615F
:104F20007220636F6E736F6C6500000064656C6562
:104F300074650000736800006D656D00646F776EC6
:104F40000000000068656C700000000075700000D3
:104F50007365745661720000636C656172000000D5
:104F60006C69737420616C6C2076617200000000C3
:104F700073657420766172006C69737420616C6C67
:104F8000207573657200000064656661756C74203D
:104F90007573657200000000656E74657200000034
:104FA000636D64730000000076617273000000009E
:104FB00075736572730000006B6579730000000003
:104FC0006C65667400000000726967687400000018
:104FD0006C69737420616C6C206B65790000000053
:104FE00072756E20636F6D6D616E642064697265A9
:104FF00063746C7900000000616C6C6F63206D65F8
:105000006D6F727900000000412F0000442F0000F6
:10501000452F0000492F0000562F0000572F000099
:1050200033313B32326D000033323B32326D00009F
:1050300033333B32326D000033343B32326D00008B
:1050400033353B32326D000033363B32326D000077
:105050007050000800000020B80000006410000834
:1050600028510008B8000020203600007410000805
:105070000000000000000000000000000000000030
:1050800001020304010203040607080902040608DA
:10509000EC4C0008884C0008304C0008444C0008D8
:1050A000544C0008644C0008744C0008D84C0008AC
:1050B000BC4C0008AC4C00085C4E00088C4E00084C
:1050C000A04E0008484E0008C44E00086C4E000870
:1050D000744E00087C4E0008D04E0008844E000834
:1050E000BC4E000808500008105000081C50000872
:1050F000145000080C5000081850000840500008D8
:10510000205000083050000848500008285000087F
:1051100038500008000000000000000000000000FF
:08512000000000000000000087
:04000005080000ED02
:00000001FF
